:10000000FBC0000016C1000014C1000012C10000B6
:1000100010C100000EC100000CC100000AC10000A8
:1000200008C1000006C1000004C100005CC300005C
:1000300000C10000FEC00000FCC00000FAC00000CB
:10004000F8C00000F6C00000F4C00000F2C00000DC
:10005000F0C00000EEC00000ECC00000A3C600002D
:1000600076C60000E6C00000E4C00000E2C0000068
:10007000E0C00000DEC00000DCC00000DAC000000C
:10008000D8C00000D6C00000D4C00000D2C000001C
:10009000D0C00000CEC00000000000006FC75E109E
:1000A000DE8EBD20B149E330BC1D7B41D3DA255142
:1000B0006293C6610D549871783BF68217FCA89242
:1000C000A6B54BA2C97215B2C4268DC3ABE1D3D37A
:1000D0001AA830E3756F6EF305010905A10115003B
:1000E00025013500450175019510050919012910F3
:1000F000810205012507463B017504950165140938
:1001000039814265009501810126FF0046FF000903
:10011000300931093209357508950481020600FF5E
:100120000920950181020A212695089102C0120139
:100130000002000000400D0F9200000101020001CA
:100140000902290001010080FA09040000020300ED
:100150000000092111010001225600070502034099
:10016000000807058103400008040309041C034834
:10017000004F0052004900200043004F002E002C89
:10018000004C00540044002E000000240350004F97
:10019000004B004B0045004E00200043004F004E36
:1001A00000540052004F004C004C0045005200002B
:1001B00000D5738162EED5E1EB87FB3290FD4C6692
:1001C000EF8B83F4D8CD3598F89A0708C5E3DEEFB6
:1001D00034208E99125EC41094D3948A0D8A77CD00
:1001E000128360E601000102000102000102030027
:1001F000000001010102020211241FBECFEFD2E074
:10020000DEBFCDBF11E0A0E0B1E0EAE4FFE202C052
:1002100005900D92AE31B107D9F712E0AEE1B1E031
:1002200001C01D92A333B107E1F70E9434110C9471
:10023000A317E6CE8AB180638AB98BB180638BB98C
:100240000895882319F08BB18F7C02C08BB1806335
:100250008BB908959BB1892F880F8927807280619F
:1002600089278BB908959C014091D5015091D60101
:100270004617570718F4F90190E03DC06115710564
:1002800011F0AB01F8CF8091E8008E778093E80001
:1002900040E050E0F0CF8091CE01882309F441C0C6
:1002A000853009F440C08091E80083FD3EC0809114
:1002B000E80082FD30C08091E80080FF1CC0809182
:1002C000F200282F30E007C081918093F100415067
:1002D00050402F5F3F4F4115510519F02034310533
:1002E00098F390E02034310509F491E08091E80022
:1002F0008E778093E8004115510569F6992359F6E8
:100300000AC08091CE01882361F0853061F0809130
:10031000E80083FD0AC08091E80082FFF2CF80E010
:10032000089582E0089583E0089581E008959C0196
:100330004091D5015091D6014617570718F4F9019D
:1003400090E03EC06115710511F0AB01F8CF8091CE
:10035000E8008E778093E80040E050E0F0CF809195
:10036000CE01882309F442C0853009F441C0809150
:10037000E80083FD3FC08091E80082FD31C080919C
:10038000E80080FF1DC08091F200282F30E008C0F7
:1003900084918093F1003196415050402F5F3F4F40
:1003A0004115510519F02034310590F390E02034C7
:1003B000310509F491E08091E8008E778093E800A0
:1003C0004115510561F6992351F60AC08091CE017D
:1003D000882361F0853061F08091E80083FD0AC0D8
:1003E0008091E80082FFF2CF80E0089582E00895D6
:1003F00083E0089581E00895BF92CF92DF92EF925B
:10040000FF920F931F93CF93DF93182F092F7B0138
:100410006A01EFD0B82E8823B1F5812F902F9C016F
:10042000E901C114D10439F0F60180819181E81A03
:10043000F90AC80FD91F00E010E022C08091E8003F
:1004400085FD16C08091E8008B778093E80060D32B
:10045000C114D10449F0F60180819181800F911F70
:100460009183808385E010C0C4D0882349F00CC0FC
:100470008091F10089930894E108F1080F5F1F4F04
:10048000E114F104D9F68B2DDF91CF911F910F91DB
:10049000FF90EF90DF90CF90BF900895BF92CF92E2
:1004A000DF92EF92FF920F931F93CF93DF93182F5A
:1004B000092F7B016A019DD0B82E8823B1F5812FC9
:1004C000902F9C01E901C114D10439F0F60180811B
:1004D0009181E81AF90AC80FD91F00E010E022C084
:1004E0008091E80085FD16C08091E8008E778093AA
:1004F000E8000ED3C114D10449F0F6018081918146
:10050000800F911F9183808385E010C072D0882373
:1005100049F00CC089918093F1000894E108F1083A
:100520000F5F1F4FE114F104D9F68B2DDF91CF91AE
:100530001F910F91FF90EF90DF90CF90BF900895A3
:10054000382F282F2EC0822F8F708093E900231719
:1005500021F4762F942F50E006C07091EC0090911A
:10056000ED005091F00091FF1BC08091EB008E7F59
:100570008093EB008091ED008D7F8093ED00809162
:10058000EB0081608093EB007093EC009093ED00A2
:100590005093F0008091EE0087FD02C080E0089546
:1005A0002F5F253080F23F703093E90081E008959D
:1005B0008091CF0188239CF404C08091CE018823D0
:1005C000B9F08091E80082FFF8CF8091E8008B7746
:1005D0008093E80008958091CE01882349F08091AE
:1005E000E80080FFF8CF8091E8008E778093E800E4
:1005F00008954091E4005091E50024E68091EC00DC
:1006000080FF24C08091E80080FD1EC08091CE0153
:10061000882311F482E00895853011F483E0089571
:100620008091EB0085FF02C081E008958091E40095
:100630009091E5008417950709F3222311F484E0D3
:1006400008952150AC01DACF80E008958091E80050
:1006500082FFDCCFF9CF41D043D08091D8008F7793
:100660008093D8008091D80080688093D8008091D2
:10067000D8008F7D8093D80084E089BD86E089BD55
:1006800009B400FEFDCF1092CE011092CA01109263
:10069000CC011092CB0180E060E042E351DF809119
:1006A000E1008E7F8093E1008091E2008160809381
:1006B000E2008091E20088608093E2008091E00097
:1006C0008E7F8093E0000895E3E6F0E080818E7FE6
:1006D000808381E08093CD01BECF1092E200089527
:1006E0001092E10008951F920F920FB60F921124FD
:1006F0002F933F934F935F936F937F938F939F932A
:10070000AF93BF93EF93FF938091E10082FF0AC004
:100710008091E20082FF06C08091E1008B7F809390
:10072000E100F5D18091E10080FF17C08091E200E7
:1007300080FF13C08091E2008E7F8093E200809161
:10074000E20080618093E2008091D8008062809313
:10075000D80019BC1092CE0196D38091E10084FF9D
:100760002FC08091E20084FF2BC084E089BD86E029
:1007700089BD09B400FEFDCF8091D8008F7D8093A4
:10078000D8008091E1008F7E8093E1008091E200AB
:100790008F7E8093E2008091E20081608093E2008E
:1007A0008091CA01882311F084E007C08091E300A2
:1007B00087FD02C081E001C083E08093CE0162D357
:1007C0008091E10083FF22C08091E20083FF1EC080
:1007D0008091E100877F8093E10082E08093CE01E9
:1007E0001092CA018091E1008E7F8093E100809198
:1007F000E2008E7F8093E2008091E200806180932E
:10080000E20080E060E042E39BDE81D1FF91EF9166
:10081000BF91AF919F918F917F916F915F914F9118
:100820003F912F910F900FBE0F901F9018951F931F
:10083000DF93CF93CDB7DEB7AC970FB6F894DEBF9A
:100840000FBECDBFEFECF1E08091F100819321E08C
:10085000E73DF207C9F718D38091E80083FF3FC155
:100860008091CF013091D001353009F48DC0363000
:1008700040F43130E1F1313070F0333009F02FC104
:1008800036C0383009F4FDC0393009F40CC13630B7
:1008900009F025C19CC0803821F0823809F01FC1C1
:1008A00008C09091CB018091CC018823B1F0926077
:1008B00014C08091D3018F70853008F010C18093EF
:1008C000E9008091EB0090E025E0969587952A95C8
:1008D000E1F7982F91701092E9008091E800877FEE
:1008E0008093E8009093F1001092F100D5C0882326
:1008F00019F0823009F0F3C090E08F71907000978A
:1009000021F0029709F0EBC00CC08091D101813039
:1009100009F0E5C01092CC01333081F58093CC0111
:100920002DC08091D101882349F52091D3012F70EA
:10093000822F8150843008F0D2C02093E90080914A
:10094000EB0080FF1BC0333021F48091EB0080620C
:1009500013C08091EB0080618093EB0081E090E018
:1009600002C0880F991F2A95E2F78093EA0010923F
:10097000EA008091EB0088608093EB001092E90020
:100980008091E800877F8BC0882309F0A8C0109170
:10099000D1011F778091E3008078812B8093E30061
:1009A0008091E800877F8093E80002DE8091E80074
:1009B00080FFFCCF8091E30080688093E3001123E7
:1009C00011F482E001C083E08093CE0188C080589A
:1009D000823008F084C08091D1019091D20123E04F
:1009E0008C3D920709F033C083E08C838AE28B83CD
:1009F0007FB7F894DE0115966EE040E050E011E21A
:100A0000E62FF0E010935700849140FF03C08295D9
:100A10008F706F5F8F70282F30E08A3018F0C90117
:100A2000C79602C0C901C0968D939D934F5F5F4FDB
:100A30004431510529F77FBF8091E800877F80937B
:100A4000E800CE0103966AE270E00DDC14C060910C
:100A5000D3017091D401AE014F5F5F4FCAD1BC0189
:100A6000009709F43CC08091E800877F8093E800FC
:100A700089819A815CDC8091E8008B778093E80023
:100A80002EC0803861F58091E800877F8093E80070
:100A90008091CA018093F1008091E8008E77809365
:100AA000E80086DD1CC08823D1F49091D1019230FA
:100AB000B0F48091E800877F8093E8009093CA01AA
:100AC00077DD8091CA01882331F48091E30087FDAE
:100AD00002C081E001C084E08093CE0144D28091C5
:100AE000E80083FF0AC08091E800877F8093E800D8
:100AF0008091EB0080628093EB00AC960FB6F89487
:100B0000DEBF0FBECDBFCF91DF911F910895089535
:100B10001F938091CE01882371F01091E90080919C
:100B2000EC001092E9008091E80083FF01C07FDEB5
:100B30001F701093E9001F91089581E082CB7ACB5A
:100B400008950F931F93DF93CF9300D000D0CDB7BC
:100B5000DEB78C01862FF8016081682770E06F7026
:100B60007070660F771F660F771F68567F4FCE0134
:100B7000019644E050E00E949117F8018081918134
:100B8000A281B38114E0B695A795979587951A959C
:100B9000D1F729813A814B815C8182279327A42751
:100BA000B52780839183A283B3830F900F900F901A
:100BB0000F90CF91DF911F910F9108958F929F9287
:100BC000AF92BF92CF92DF92EF92FF921F93DF938B
:100BD000CF9300D000D0CDB7DEB769837A838B8303
:100BE0009C835A016901EE24FF244E010894811C64
:100BF000911C0FC0F501EE0DFF1D1081C401612F86
:100C0000A0DF12951F70C401612F9BDF0894E11CC7
:100C1000F11CEC14FD0470F369817A818B819C8155
:100C20000F900F900F900F90CF91DF911F91FF9039
:100C3000EF90DF90CF90BF90AF909F908F900895EE
:100C4000EF92FF920F931F937C018B010450104091
:100C50006FEF7FEF8FEF9FEFA7019801AFDF0E0DD2
:100C60001F1DF80160837183828393831F910F910D
:100C7000FF90EF9008959B01AC01F89460E079E05B
:100C80008DE390E00E946F1721503040404050406B
:100C900056954795379527953093CD002093CC00F6
:100CA00082E08093C80088E98093C90086E0809341
:100CB000CA0010923101809131018093300110926D
:100CC0007B0180917B0180937A01789408959091C3
:100CD00030019F5F923108F090E08091310120E077
:100CE000891321E0822F0895282F909130019F5F72
:100CF000923108F090E0809131018917E1F3E92FFA
:100D0000F0E0E25EFE4F20839093300188EB809309
:100D1000C900089590917A0180917B0120E0981399
:100D200021E0822F089590917A0180917B0198179C
:100D3000D1F390917B019F5F983408F090E0E92F08
:100D4000F0E0EE5CFE4F808190937B0108951F924E
:100D50000F920FB60F9211248F939F93EF93FF93EF
:100D60009091300180913101981721F488E98093A6
:100D7000C9000FC0909131019F5F923108F090E05F
:100D8000E92FF0E0E25EFE4F80818093CE009093E9
:100D90003101FF91EF919F918F910F900FBE0F90B6
:100DA0001F9018951F920F920FB60F9211242F9338
:100DB0008F939F93EF93FF932091CE0090917A01B0
:100DC0009F5F983408F090E080917B01981739F08C
:100DD000E92FF0E0EE5CFE4F208390937A01FF91C3
:100DE000EF919F918F912F910F900FBE0F901F90B9
:100DF0001895DA019330B1F0943028F4913041F035
:100E0000923079F50AC0913211F1923251F524C035
:100E1000EEE2F1E022E130E028C0E0E4F1E029E296
:100E200030E023C0813049F0813018F08230C9F4BD
:100E30000AC0E9E6F1E0849103C0EDE6F1E08491B7
:100E4000282F30E012C0EBE8F1E08491F9CFE2E521
:100E5000F1E029E030E009C0E8EDF0E026E530E01F
:100E600004C0E0E0F0E020E030E0ED93FC93C90145
:100E7000089560917C0170917D0180917E01909137
:100E80007F01089508950895089542CE08950F931F
:100E90001F93DF93CF93CDB7DEB72F970FB6F8949C
:100EA000DEBF0FBECDBF288739874A875B876C8737
:100EB0007D878E879F878091CE01843009F047C05F
:100EC00082E08093E9008091E80082FF14C0809165
:100ED000E80085FF0BC08E010F5F1F4FC80167E060
:100EE00070E040E050E088DA8823C1F78091E800A4
:100EF0008B778093E80081E08093E9008091E8009F
:100F000080FF25C08E01085F1F4FC80168E070E0B8
:100F100040E050E0C3DA8823C1F78091E8008E7783
:100F20008093E80080917C0190917D01A0917E01E9
:100F3000B0917F010196A11DB11D80937C0190931A
:100F40007D01A0937E01B0937F0181E001C080E02C
:100F50002F960FB6F894DEBF0FBECDBFCF91DF91B5
:100F60001F910F91089582E060EC42E3E9DA81E09D
:100F700061EC42E3E5CA9091850180918601891771
:100F800019F420E030E00BC0892F90E0837090705E
:100F90006EE070E00E945D179C0129523E4FC9012E
:100FA00008950F931F93CF93DF9380918E01882331
:100FB00009F03EC08091850190E0837090706EE0F2
:100FC00070E00E945D17FC01E952FE4F8DEE8083B8
:100FD00085E481838F010E5F1F4F82819381A481FD
:100FE000B581E8018C839D83AE83BF838091070127
:100FF00090910801A0910901B0910A018283938325
:10100000A483B5830196A11DB11D80930701909320
:101010000801A0930901B0930A012BDFF801608752
:10102000718782879387809185018F5F8093850187
:10103000DF91CF911F910F9108951F93CF93DF936D
:10104000EC0117DF6093800170938101809382012E
:101050009093830110918401809185018117E9F0BB
:10106000812F90E08370907067E070E00E945D17C0
:10107000FC01EE0FFF1FE752FE4F288139814A81A4
:101080005B8180819181A281B381281739074A074A
:101090005B0719F41F5F10938401DF91CF911F91BB
:1010A0000895481711F480E00895842F14D181E049
:1010B00008950F931F938C01109284011092850163
:1010C000109286011092870195D4F8016081718198
:1010D000828193819ED01F910F910895FC012091F0
:1010E0008601622F70E080918401AB01481B510999
:1010F0004430510514F080E00895408140954450FB
:101100002F5F20938601CB01837090706EE070E0BA
:101110000E945D179C0129523E4FC901BF0150E05A
:101120000E949A1781E00895909185018091840131
:10113000981709F43AC0809187018917F1F08F5F01
:1011400080938701815090E0837090706EE070E032
:101150000E945D1789529E4FADD190918701809179
:101160008501981701F585DE6093800170938101F8
:10117000809382019093830116C07BDE20918001D1
:10118000309181014091820150918301621B730B68
:10119000840B950B605872408040904030F08091F5
:1011A00084018093870181E0089580E008956A5F5B
:1011B00060938A01962F909590930F02809310026E
:1011C0008FE092E070E03CCDEF92FF920F931F937F
:1011D0007B018C0180918A01882311F080E014C08A
:1011E000E0921102F0921202009313021093140283
:1011F0002093150230931602409317025093180261
:1012000084E168E0D4DF81E01F910F91FF90EF90BF
:1012100008959B01AC0180918A01882311F080E040
:1012200008952093110230931202409313025093B9
:10123000140281E164E0BBDF81E008959B01AC0111
:1012400080918A01882311F080E008952093110293
:1012500030931202409313025093140280E164E031
:10126000A6DF81E008959C0180918A01882311F016
:1012700080E00895309312022093110287E062E02B
:1012800096DF81E0089560931102709312028093BB
:1012900013029093140286E064E089DF81E00895F0
:1012A00060931102709312028093130290931402C0
:1012B00085E064E07CDF81E008958093110283E0A3
:1012C00061E075DF81E008958093110282E061E0C2
:1012D0006EDF81E008958093110281E061E067DFB5
:1012E00081E0089580918A01882311F080E00895BB
:1012F00080E060E05CDF81E00895EF92FF920F9361
:101300001F93CF93DF93EB01833409F475C08434CA
:1013100040F4813441F1823408F045C0803439F41E
:1013200008C0843409F489C0863409F493C080E08D
:101330009BC0443009F090C00E942A0188819981A5
:10134000AA81BB810196A11DB11D80930B019093D1
:101350000C01A0930D01B0930E01688179818A81FF
:101360009B8157DF80C0443009F076C080E00E9446
:1013700021018EE080938A0181EF80930F0284E146
:101380008093100288819981AA81BB818093110288
:1013900090931202A0931302B093140280EC90ED8C
:1013A000A6E7B8E71CC0443009F056C08EE0809331
:1013B0008A0181EF80930F0284E18093100288817B
:1013C0009981AA81BB818093110290931202A0930C
:1013D0001302B093140284EA93E9A7E7B8E7809375
:1013E000150290931602A0931702B09318028FE093
:1013F00092E06EE070E01FC0443071F58BE08093A6
:101400008A0184EF80930F0282E180931002888129
:101410009981AA81BB818093110290931202A093BB
:101420001302B093140280918801809315028FE01B
:1014300092E06BE070E004DC16C0443069F4E880B0
:10144000F9800A811B8115DD9B01AC01C801B70140
:10145000BBDE09C0443019F0842F3DDF04C02223D5
:1014600011F0CB0126DE81E0DF91CF911F910F912A
:10147000FF90EF900895833018F4813038F414C051
:10148000843021F0813161F080E0089582E1809321
:101490008A01EFE0F2E0DF011D928A95E9F704C0CE
:1014A000443021F0842F17DF81E00895CB01C5DDA2
:1014B00081E008950F931F93FC01208120952093D4
:1014C0008A010FE012E030E024503040C801BF0133
:1014D000A9010E949A1760918A01C80170E0B0DBEF
:1014E0001F910F9108950F931F9314DC882319F413
:1014F00010928C0168C010918B0115DCE12FF0E097
:10150000EF5DFD4F80831F5F10938B01809121025F
:10151000082F0095113059F5882359F410928B014A
:1015200080918C01813009F0DDDE81E080938C01B7
:101530004AC0063010F00331D0F010928B01809138
:101540008C01823011F0802FC6DE82E080938C0106
:1015500039C0E0DB8823B1F110918B01E4DBE12F8E
:10156000F0E0EF5DFD4F80831F5F10938B012091B2
:101570008B01201770F330E0245030406FEF7FEF85
:101580008FEF9FEF41E252E019DBE0918B01F0E039
:10159000E35EFD4F208131814281538162177307E1
:1015A0008407950759F010928B0180918C0182304D
:1015B00049F0802F89DE00938A0104C010928C01CB
:1015C00082E001C081E01F910F91089580918A010E
:1015D000882389F408957BDB882311F481E0089542
:1015E00090918901E92FF0E0E15FFD4F80819F5FDD
:1015F0009093890179DB9091890180918A019817F4
:1016000050F31092890110928A0180E00895BF92F0
:10161000CF92DF92EF92FF920F931F93D7DF882331
:1016200009F091C060DF882311F47EDD8DC0813028
:1016300009F489C0B0908B018AEFB80E10928B012B
:10164000D09022028FE38D1548F08D2D63E272E079
:101650004B2D11DF882309F076C053C0E0902302A0
:10166000F0902402009125021091260220910B0196
:1016700030910C0140910D0150910E01CC24E216E5
:10168000F3060407150719F4CC24C39412C0D8013B
:10169000C701821B930BA40BB50B181619061A066B
:1016A0001B063CF480E4D81621F0CA01B901F8DD2C
:1016B0004AC08D2D807C8034C1F48D2D63E272E0B0
:1016C0004B2D2C2D1ADE882369F4E0918F01F091C7
:1016D00090013097B1F08D2D63E272E04B2D0995AA
:1016E000882379F0CC2079F117C0CC2021F4C801EF
:1016F000B701A4DD28C08091910190919201892BBE
:1017000019F48D2DDADD1FC081E292E0E7DC882339
:10171000B9F0C801B70192DD80910B0190910C01E5
:10172000A0910D01B0910E010196A11DB11D8093F4
:101730000B0190930C01A0930D01B0930E0103C017
:10174000C801B701A0DD81E01F910F91FF90EF90DC
:10175000DF90CF90BF900895EF92FF920F931F9369
:1017600020910F013091100140911101509112010F
:10177000DA01C9016DE0880F991FAA1FBB1F6A9586
:10178000D1F782279327A427B5277C018D0121E17A
:1017900016950795F794E7942A95D1F7E826F92648
:1017A0000A271B27A801970185E0220F331F441F3A
:1017B000551F8A95D1F72E253F2540275127209385
:1017C0000F01309310014093110150931201B901A0
:1017D000CA011F910F91FF90EF900895FC01DB016A
:1017E000118210821D921C92FA01108208950895B0
:1017F000282F30E0F901EF54FE4FE491F0E0862FFE
:1018000090E063E370E00E945D17280F391FCF015D
:101810008227932767EC70E00C945D171F93CF939A
:10182000DF93C7E9D1E010E0812F60919601E0DFFE
:1018300089931F5F1333C1F7DF91CF911F910895F3
:10184000DF92EF92FF920F931F9390E063E070E0BE
:101850000E945D17F82EE09096016E2DC9DFD82EFC
:101860000F2D10E08F2D8F5F6E2DC2DF09561E4F9A
:10187000F8019181582F592740E020812D2530E033
:10188000242B352BC9011F910F91FF90EF90DF9012
:1018900008951F9390E063E070E00E945D17182F99
:1018A0001E5F812F60919601A3DFE7E9F1E0E10F70
:1018B000F11D9081892790E01F9108951F93182FA3
:1018C000BFDF892B19F080E090E009C0812FE1DFB4
:1018D00020E0892B09F021E081E02827822F1F9149
:1018E0000895DF92EF92FF920F931F93E62ED72E6B
:1018F00090E063E070E00E945D17F82E082F10E082
:101900006091960175DF09561E4FE826F801E082C6
:101910008F2D8F5F609196016BDFD826F801D18201
:101920001F910F91FF90EF90DF9008950F931F93F9
:10193000162F90E063E070E00E945D17082F0E5FA5
:10194000802F6091960154DFE7E9F1E0E00FF11D8F
:10195000182710831F910F910895EF92FF920F9314
:101960001F93CF93DF9380919501882309F43BC0A7
:101970000091150110911601C0E0D0E071E0E72E52
:10198000F12C8C2F5DDF892B59F4C7010C2E02C07E
:10199000880F991F0A94E2F78095909508231923E0
:1019A0002196CE30D10569F71093160100931501E9
:1019B0008EE046DF892B19F488E0809317018FE0D1
:1019C0003FDF892B29F480E8809318018093190167
:1019D00080E136DF892B29F480E880931A01809317
:1019E0001B0110929501DF91CF911F910F91FF90F4
:1019F000EF9008951F9381E080938E01809395016D
:101A000010E0812F60E070E06CDF812F60E08EDFFE
:101A10001F5F1131B1F7A1DF1F910895FF920F935E
:101A20001F93CF93DF9399DF209115013091160119
:101A300040911701509118016091190170911A019C
:101A400080911B0190911C0122DAF82E1EDAFF20F2
:101A500011F411E037C010E0812FF2DEEC01812F8C
:101A600018DF682F80918E01882321F000E0C0E00C
:101A7000D0E007C0062F209711F0219702C0611116
:101A80000150809196018F5F80939601812FBE0156
:101A900028DF812F602F4ADF80919601815080934B
:101AA00096018F5F1F5F1131B9F68093960181E037
:101AB00080939501E0919301F0919401309709F0A2
:101AC000099512E3A4DD882311F01150D9F78F2D69
:101AD000DF91CF911F910F91FF900895DF92EF92C8
:101AE000FF920F931F93CF93DF93F82EE62ED42E01
:101AF000E90180918E01882319F090DF81E01DC0FB
:101B0000FF2011F410E101C01FE0812FD7DE8823F0
:101B1000A1F0812FBE01E5DE812F602F07DFFF20BE
:101B200029F0E0921801D092190104C0E0921A0144
:101B3000D0921B0181E080939501DF91CF911F919D
:101B40000F91FF90EF90DF9008950F931F93CF9325
:101B5000DF93082FEB01142F80918E01882319F059
:101B60005DDF81E00FC08EE0A9DE882359F08EE0B2
:101B7000BE01B7DE8EE0612FD9DE0093170181E050
:101B800080939501DF91CF911F910F9108956F92EE
:101B90007F928F929F92AF92BF92CF92DF92EF92FD
:101BA000FF920F931F93CF93DF936C015B01742E11
:101BB00080918E01882311F031DF44C0C0E0D0E075
:101BC00001E010E0C8010C2E02C0880F991F0A9492
:101BD000E2F78C219D21892B21F08C2F6FDE882349
:101BE00091F12196CE30D10569F700911501109140
:101BF0001601C0E0D0E0E1E08E2E912C66246394C3
:101C000074010C2E02C0EE0CFF1C0A94E2F7C7010F
:101C10008C219D21892B71F08C2F50DE882351F06F
:101C20008C2FB5015EDE8C2F672D80DE0E291F29DB
:101C3000609295012196CE30D10511F710931601CF
:101C40000093150181E0DF91CF911F910F91FF90DB
:101C5000EF90DF90CF90BF90AF909F908F907F904C
:101C60006F9008951F9311E005C010E080918E01E0
:101C7000882361F4D3DE8823C1F3112339F08091E6
:101C80008E01882319F481E090E0EDDA1F91089528
:101C90008FC20895BDC00895EF920F931F93CF9305
:101CA000DF93982F762F8A01E9014530510510F412
:101CB00005E010E080E0692F472F9801EE244ED117
:101CC000CE01E8DFDF91CF911F910F91EF90089542
:101CD000EF920F931F93CF93DF93982F762F8A0164
:101CE000E9014530510510F405E010E081E0692F6D
:101CF000472F9801EE2432D1CE01CCDFDF91CF9176
:101D00001F910F91EF900895CF93DF939B01EA010C
:101D10006530710510F425E030E0B901A90120E03B
:101D200078D1CE01B7DFDF91CF910895CF93DF93C4
:101D30009B01EA016530710510F425E030E0B9013E
:101D4000A90120E055D2CE01A5DFDF91CF91089502
:101D50000F931F9300911301109114012EEE3BE09D
:101D600030931401209313010E9421011093140158
:101D7000009313011F910F9108950F931F93CF9319
:101D8000DF938C01C0E0D0E00BC081E0E1DF89E1AE
:101D900090E080DF80E0DCDF89E190E07BDFE296AD
:101DA000C017D10790F3DF91CF911F910F91089544
:101DB0008093880184B7877F84BF88E10FB6F89449
:101DC00080936000109260000FBEE1E6F0E080E8D2
:101DD0008083108260E072EC81E090E00E943B061C
:101DE0000E94640378941ACD813029F0813030F05C
:101DF000823051F406C020E430E008C024E030E036
:101E000005C020E830E002C020E030E0C9010895BC
:101E10000F931F93CF93DF938C01C0E0D0E006C0F7
:101E200080918E01882329F41DDF2196C017D107E8
:101E3000B8F3DF91CF911F910F910895DF92EF9248
:101E4000FF920F931F93CF93DF937C01EB01D42E6E
:101E500083DC162F13701330D9F300E0113029F012
:101E6000113030F0123051F406C0E7EAFFE008C04C
:101E7000E0EFFFE005C0E0EAFFE002C0E0E0F0E0F4
:101E8000C701BE014D2D0995882311F081E008C0DE
:101E90001F5F133009F410E00F5F0330F9F680E0A4
:101EA000DF91CF911F910F91FF90EF90DF900895F8
:101EB000DF92EF92FF920F931F93CF93DF938C01EA
:101EC0007B01EA01D22E80918E01882311F009C096
:101ED000C9DEC801BE014D2DB1DF8823C9F3C7019A
:101EE00097DFDF91CF911F910F91FF90EF90DF90DF
:101EF000089545E050E023E0DBCF0F93FA01022F75
:101F00006230710591F06330710518F4672B41F070
:101F10000AC06430710559F06630710521F40AC0B9
:101F200060E840E009C060E806C06FEF04C060E808
:101F30004FEF02C060E040E89F01D0DD0F910895AF
:101F4000FC01DB01242F80E0BF01AD01D6CFFC01F5
:101F5000DB01242F81E0BF01AD01CFCFCF92DF9213
:101F6000EF92FF920F931F93DF93CF9300D000D097
:101F70000F92CDB7DEB7C82ED62EF42E3A83298322
:101F80001C830B83ED8280918E018823D9F4E0912C
:101F90001301F0911401CE010196BE016D5F7F4FD8
:101FA000AE014B5F5F4F099501C05CDE2B813C8128
:101FB0008C2D6D2D4F2D0D8191DD8823B1F38981FD
:101FC0009A8126DF0F900F900F900F900F90CF9176
:101FD000DF911F910F91FF90EF90DF90CF900895C8
:101FE0008230910581F08330910518F4892B39F006
:101FF00008C08430910549F0069719F408C080E0C4
:1020000007C088E005C082E003C084E001C086E02C
:102010009CCD1F93DF93CF9300D000D00F92CDB70C
:10202000DEB7182F7A8369835C834B832D8380917D
:102030008E018823C9F4E0911301F0911401CE01BF
:102040000196BE016D5F7F4FAE014B5F5F4F0995FB
:1020500001C008DE6B817C81812F4D8176DD882374
:10206000C1F389819A81D4DE0F900F900F900F9069
:102070000F90CF91DF911F91089545E050E023E04C
:10208000C8CF23E0C6CFEF92FF920F931F93CF9359
:10209000DF937C0110E0C0E0D0E022C080918E018F
:1020A000882309F5112321F0DDDD2196115018C098
:1020B00053DB162F13701330D9F300E0812F94DE19
:1020C00065E070E043E063DD882311F013E008C0B1
:1020D0001F5F133009F410E00F5F033079F711E050
:1020E000CE15DF05D8F2DF91CF911F910F91FF90B0
:1020F000EF900895AF92BF92CF92DF92EF92FF924E
:102100000F931F93CF93DF935C016B017A01809152
:102110008E01882309F041C0C0E0D0E002C0A2DDFA
:102120002196C50165E070E043E031DD8823B9F315
:1021300084E090E06DDE02C095DD2196C60165E089
:1021400070E043E024DD8823B9F3CE15DF0528F5E0
:1021500080918E01882309F5C50165E070E043E0B8
:1021600016DD8E010C5F1F4FCE15DF05B0F47ADD52
:102170002196C017D107C1F7C60165E070E043E0C2
:1021800006DD8E010C5F1F4FCE15DF0530F46ADDD2
:102190002196C017D107C1F7DBCFDF91CF911F91F7
:1021A0000F91FF90EF90DF90CF90BF90AF90089588
:1021B000EF92FF920F931F93CF93DF937C018B01DC
:1021C000C0E0D0E00BC080918E01882351F4C7019C
:1021D00065E070E043E0DBDC45DD2196C017D10708
:1021E00090F3DF91CF911F910F91FF90EF900895A1
:1021F0000F931F93DF93CF9300D000D00F92CDB7F2
:10220000DEB78C017A8369835C834B832D83809155
:102210008E018823C9F4E0911301F0911401CE01DD
:102220000196BE016D5F7F4FAE014B5F5F4F099519
:1022300001C018DD6B817C81C8014D81A8DC882339
:10224000C1F389819A81E4DD0F900F900F900F9078
:102250000F90CF91DF911F910F91089545E050E0CD
:1022600023E0C6CF23E0C4CFCF93DF930E949F0526
:1022700088E09EDD80910001909101017EDD8AE57C
:1022800093E1909392018093910180918E01882334
:1022900029F010928E0180E00E942101BFDB0E9494
:1022A000BB07EC01009789F3BC016E5F7F4F48814B
:1022B00040954650E0919101F091920189810995F4
:1022C000882319F789810E945D09DFCF882339F0BF
:1022D00080E090E16AE070E04AE550E006C080E00E
:1022E00090E16AE070E04EEB50E020DD80E090E1AC
:1022F0006AE070E040E050E019CD0F931F938C012D
:1023000083E090E0C7DCC80160E070E0F2DD1F917F
:102310000F910895EF92FF920F931F93E82EF62EE0
:1023200082E090E064E070E0E4DD82E090E064E070
:1023300070E0DFDD84E090E063E070E0DADD84E00F
:1023400090E064E070E0D5DD82E090E060E070E075
:10235000D0DD84E090E063E070E080DF84E090E036
:1023600063E070E07BDFFF2011F404E301C003E3CE
:1023700010E084E090E063E070E0BBDD1F5F1017C9
:10238000C0F3FF2019F46DE270E002C068E270E073
:1023900082E090E0AEDD84E090E063E070E0A9DDF3
:1023A00084E090E063E070E0A4DD84E090E06AE027
:1023B00070E09FDD84E06DE270E048E250E061DEB5
:1023C00084E090E063E070E094DD84E090E063E01E
:1023D00070E08FDDEE2031F484E090E06DE270E09B
:1023E0003DDF18C084E090E063E070E037DFFF205D
:1023F00011F40CE001C00AE010E084E090E063E03A
:1024000070E077DD1F5F1017C0F384E090E060E0BC
:1024100070E06FDD1F910F91FF90EF9008950F9383
:102420001F93882319F413E004E002C012E003E0D4
:1024300084E090E064E170E04AE050E013DF80E087
:1024400090E060E070E055DD84E090E0612F70E0A6
:1024500005DF82E090E0602F70E04BDD80E090E0EF
:10246000612F70E046DD82E090E0602F70E041DD9A
:1024700084E090E060E070E0F1DE82E090E0602FC8
:1024800070E037DD82E090E0602F70E032DD82E0C6
:1024900090E060E070E02DDD84E090E064E170E0C9
:1024A0004AE050E0DFDE1F910F910895FF920F93F5
:1024B0001F93CF93DF93F82E882309F458C0662327
:1024C00011F404E001C003E084E090E064E170E016
:1024D0004AE050E0C7DE10E0CF2DD0E0219706C0E3
:1024E00084E090E063E070E004DD1F5F812F90E006
:1024F0008C179D07ACF384E090E060E070E0F9DCBD
:1025000084E090E063E070E0A9DE82E090E0602F7C
:1025100070E0EFDC10E006C084E090E063E070E083
:10252000E8DC1F5F812F90E08C179D07ACF384E0FF
:1025300090E060E070E0DDDC84E090E063E070E07B
:102540008DDE82E090E0602F70E0D3DC82E090E0EE
:10255000602F70E0CEDC82E090E060E070E0C9DCEB
:1025600084E090E064E170E04AE050E07BDEDF91DF
:10257000CF911F910F91FF900895CF93DF93EA01C0
:102580008823D1F0CB0186DB80E060E070E04AE098
:1025900050E077DD8AE090E06DE770E04AE050E0DF
:1025A00061DE81E792E06FDD81E0C53FD80740F052
:1025B000CE01845F914003C0CB0165DDCE016ADBB3
:1025C000DF91CF910895EF92FF921F93CF93DF9306
:1025D000182F862FEA01790179DE8AE590E05ADB2F
:1025E000112321F184E06AE070E047DD80E06AE0D9
:1025F00070E043DD84E090E0BE014AE050E032DE6E
:1026000086E06AE070E039DD84E090E0BE0126DE1D
:1026100081E090E06AE070E021DE86E06AE070E050
:102620002CDD84E090E0B70119DE03C082E390E086
:1026300031DBDF91CF911F91FF90EF900895AF9222
:10264000BF92CF92DF92EF92FF920F931F938C0174
:102650007B016A01590188E090E062E370E0A8DD47
:1026600009581E4F88E090E064E070E0A80142DD68
:1026700088E090E0B7019CDDC60105DDC5010ADBFD
:102680001F910F91FF90EF90DF90CF90BF90AF9090
:10269000089588E090E064E670E08ADD88E090E0EC
:1026A00064E070E042E350E025DD88E090E060E91E
:1026B00071E07ECD9F92AF92BF92CF92DF92EF9268
:1026C000FF920F931F93DF93CF93CDB7DEB72C9775
:1026D0000FB6F894DEBF0FBECDBF6B01142F81394A
:1026E000C9F1823940F48138F9F0803941F18038FC
:1026F00009F089C00DC0833909F44FC0833908F44B
:102700003EC0843909F45FC0853909F07CC06AC0D5
:1027100084E00E945108882321F0812F0E946B09D8
:10272000B9C30E949D05B4C385E00E945108882367
:1027300009F0B0C3D60114968C910ADBA9C386E0D8
:102740000E945108882309F0A5C3F6018481958170
:10275000A1DA9EC38AE00E945108882309F09AC337
:10276000D60116966D917C91179718964D915C91B4
:10277000199714968D919C911597D8DA89C389E0A1
:102780000E945108882309F085C3F601658176818E
:10279000478150858481B8DA7BC38AE00E94510862
:1027A000882309F077C3D60116964D915C9117974F
:1027B00018962D913C91199714968C911497159613
:1027C0006C9186DA65C38AE00E945108882309F07B
:1027D00061C3F601468157812085318584816581F9
:1027E0005BDA56C388E00E945108882309F052C37F
:1027F000D60116966D917C91179714968D919C91A8
:10280000159746DA45C3843B09F4BBC0853BA0F469
:10281000803B09F486C0813B40F4803A39F1813A2B
:1028200009F435C28F3901F52EC0823B09F49FC0EF
:10283000833B08F05BC086C0883B09F432C1893B0A
:1028400038F4863B09F413C1873B08F01DC1A6C0CC
:102850008A3B09F4CCC18A3B08F46BC18B3B09F479
:10286000A2C28C3B09F4CEC280E015C386E0B6015B
:10287000412F0E945108882309F00CC3F60184817E
:10288000958101DC05C38CE0B601412F0E945108FF
:10289000882309F0FFC2D6011B96FC901B97149663
:1028A0008D919C91159760E070E04F2D50E020E0F5
:1028B0009FDCF601868160E070E04F2D50E020E063
:1028C000A8DB81E0D60117966C91179718964C916A
:1028D00020E030E00F2D10E0EE2440DB80E0F60138
:1028E000618542852F2D30E039DBD2C28CE0B60104
:1028F000412F0E945108882309F0CCC2D6011696B8
:102900006D917C91179718964D915C9119971A9635
:102910002D913C911B9714968D919C9115978FDE6C
:10292000B7C28AE0B601412F0E945108882309F0FE
:10293000B1C2F60146815781208531858481658148
:1029400042DEA6C289E0B601412F0E9451088823C9
:1029500009F0A0C2D60115966D917C911697179635
:102960004D915C91189714968C9107DE91C284E08A
:10297000B601412F0E945108882309F08BC289DEDD
:1029800087C286E0B601412F0E945108882309F0D2
:1029900081C2F60184816581BDDC7AC284E0B60122
:1029A000412F0E945108882309F074C284E090E00E
:1029B00064E170E04AE050E055DC82E090E063E0E2
:1029C00070E097DA80E090E060E070E092DA84E016
:1029D00090E062E070E042DC82E090E063E070E072
:1029E00088DA82E090E063E070E083DA82E090E0F1
:1029F00063E070E07EDA82E090E060E070E079DA37
:102A000084E090E064E170E04AE050E02BDC84E098
:102A100090E064E170E04AE050E024DC86E090E081
:102A200063E070E066DA86E090E063E070E061DA2F
:102A300086E090E063E070E05CDA86E090E063E0DE
:102A400070E057DA86E090E063E070E052DA86E00A
:102A500090E063E070E04DDA82E090E063E070E0E7
:102A600048DA84E090E060E070E043DA11C285E08B
:102A7000B601412F0E945108882309F00BC2D601EC
:102A800014968C91CCDC04C286E0B601412F0E94E2
:102A90005108882309F0FEC1F6018481658106DDB5
:102AA000F7C185E0B601412F0E945108882309F043
:102AB000F1C1D60114961C9181E061E02BDC112359
:102AC00099F18CE361E0F2DC84E090E064E170E095
:102AD0004AE050E0C7DB86E090E063E070E009DAAE
:102AE00086E090E063E070E004DA86E090E063E086
:102AF00070E0FFD980E090E062E070E0FAD986E013
:102B000090E063E070E0F5D980E090E062E070E092
:102B1000F0D986E090E063E070E0EBD980E090E0EF
:102B200062E070E0E6D902C081E079DC81E0CEDBD2
:102B3000AFC186E0B601412F0E945108882309F0F9
:102B4000A9C1F6010481158181E061E0E3DB84E045
:102B500090E064E170E04AE050E084DB84E090E0E3
:102B600060E070E07BDB82E090E063E070E0C1D980
:102B700082E090E063E070E0BCD982E090E063E046
:102B800070E0B7D984E090E060E070E067DB82E05D
:102B900090E063E070E0ADD986E090E063E070E043
:102BA000A8D980E090E062E070E0A3D982E090E0F4
:102BB00060E070E09ED984E090E064E170E04AE07B
:102BC00050E050DB84E090E064E170E04AE050E0E7
:102BD00049DB86E090E063E070E08BD984E090E030
:102BE00062E070E086D980E090E1B8014CC087E0F7
:102BF000B601412F0E945108882309F04BC1D6012C
:102C000014960C9114971596ED90FC90169781E010
:102C100060E080DB84E090E064E170E04AE050E056
:102C200021DB84E090E060E070E018DB82E090E07F
:102C300063E070E05ED982E090E063E070E059D933
:102C400010E006C084E090E063E070E052D91F5FBE
:102C50001017C0F384E090E060E070E0FFDA82E0FB
:102C600090E063E070E045D982E090E063E070E0DE
:102C700040D984E090E064E170E04AE050E0F2DAAC
:102C800080E090E1B7014AE050E0ECDA01C18BE06E
:102C9000B601412F0E945108882309F0FBC0F601BC
:102CA0009480FCE0F91510F48CE0982E30E020E0E0
:102CB000AE014F5F5F4FBE016E5F7F4F13C0F601E5
:102CC000E30FF11D95813F5FE22FF0E0DA01AE0FD7
:102CD000BF1F892F8F708C93E60FF71F92959F70FF
:102CE00090832E5F291558F37A01AA24E1E049C0A8
:102CF000D701BC90B9E0BB1508F4BB242E2F30E0FF
:102D0000C9018C519E4FFC01049122513E4FF901A3
:102D100014912B2D30E0C9018C519E4FFC01C490C1
:102D200022513E4FF901D4901EC0D11628F480E004
:102D300090E0E3DA115017C01D1540F484E090E0F4
:102D4000DCDA1F5F133079F401E00DC00C1528F4B4
:102D500082E090E0D2DA0F5F06C0C01620F486E071
:102D600090E0CBDA01500C1501F71D15F1F684E067
:102D700090E060E070E072DAA3940894E11CF11C2A
:102D8000EB2DA91408F4B4CF83E090E00E944A0E22
:102D900080E092E063E070E061DA80E092E063E07E
:102DA00070E05CDA75C088E0B601412F0E945108DE
:102DB000882309F06FC0D60116960D911C911797C4
:102DC00014966D917C91159781E090E04AE050E077
:102DD00049DA80E090E065E070E08BD880E090E038
:102DE00065E070E086D882E090E065E070E081D830
:102DF00080E092E063E070E031DA82E090E0B801D8
:102E0000D7D946C087E0B601412F0E9451088823D8
:102E100009F040C0F601F4800581E68080E090E092
:102E200063E070E066D810E006C082E090E063E006
:102E300070E05FD81F5F1F15C0F380E090E063E093
:102E400070E057D884E090E068EC70E007DAEE209C
:102E500071F010E084E090E063E070E04AD81F5F1A
:102E60001431C1F780E090E063E070E042D882E383
:102E700090E00E94080F82E063E070E0FED806C098
:102E800084E090E063E070E034D801500023C1F7A3
:102E90000E94D10781E02C960FB6F894DEBF0FBEDA
:102EA000CDBFCF91DF911F910F91FF90EF90DF90F9
:102EB000CF90BF90AF909F9008955527002480FF3A
:102EC00002C0060E571F660F771F6115710521F0AE
:102ED00096958795009799F7952F802D0895A1E2F3
:102EE0001A2EAA1BBB1BFD010DC0AA1FBB1FEE1F84
:102EF000FF1FA217B307E407F50720F0A21BB30BCF
:102F0000E40BF50B661F771F881F991F1A9469F74A
:102F100060957095809590959B01AC01BD01CF01A6
:102F20000895FB01DC0102C005900D924150504014
:102F3000D8F70895FB01DC0102C001900D924150C9
:0A2F40005040D8F70895F894FFCF31
:102F4A0071027800770101010000000100000038D9
:0E2F5A001EE797F70B000008808080800000C3
:00000001FF
