:10000000E5C2000000C30000FEC20000FCC2000008
:10001000FAC20000F8C20000F6C20000F4C20000FC
:10002000F2C20000F0C200006BC50000ECC200008C
:10003000EAC20000E8C20000E6C20000E4C200001C
:10004000E2C20000E0C20000DEC20000DCC200002C
:10005000DAC20000D8C20000D6C20000D4C200003C
:10006000D2C200000C94D7080C94AC08CCC200009B
:10007000CAC20000C8C20000C6C20000C4C200005C
:10008000C2C20000C0C20000BEC20000BCC200006C
:10009000BAC20000B8C20000B6C20000B4C200007C
:1000A000B2C20000B0C20000AEC2000000000000FA
:1000B00003836BF2F7703BE1F4F350131F979AC779
:1000C0001C14F135E8E7A126EB64CAD4CF58D98ACD
:1000D000CCDBB2783828E26B3BAB8999D0CF434D6B
:1000E000D34C28BF27BF78AC243C135E6FC75E108B
:1000F0006C4435E298B765F19B340E037050C4D759
:1001000073D3AF258720FF3684A394C4A09F879A1A
:10011000A31CEC6857EFBC7B546CD789BF081D5DEE
:10012000BC8B76AF487826BC4BFB4D4EDE8EBD2097
:10013000DD0DD6D229FE86C12A7DED33C11927E710
:10014000C29A4C1536691C0635EA77F411D664AAB2
:1001500012550F58E6A65F4BE52534B90E41FE6DEA
:100160000DC2959FF931C58CFAB2AE7EB149E3302C
:10017000B2CA88C24639D8D145BAB323AEDE79F7C0
:10018000AD5D120559AE42165A2D29E47E113ABAD8
:100190007D9251488961015B8AE26AA96186A07DEE
:1001A0006205CB8F96F69B9C9575F06EBC1D7B41CE
:1001B000BF9E10B34B6D40A048EE2B52A38AE18640
:1001C000A0098A7454FADA675779B1957345A2CBBE
:1001D00070C6C9398435992A87B6F2D86CD2380CE2
:1001E0006F5153FE9BA203ED9821681FD3DA25516E
:1001F000D0594EA324AA1EB027297542CC4DBF96D4
:10020000CFCED4643B3D847738BEEF851C82FCDBC7
:100210001F019729EBF2C73AE871ACC80315661CB9
:1002200000960DEEF4655DFDF7E6360F6293C6614C
:100230006110AD9395E3FD80966096727D045CA697
:100240007E8737548A74674789F70CB5ADCB1FEBAF
:10025000AE4874195ABB240A59384FF8B25C852C41
:10026000B1DFEEDE452CBECD46AFD53F0D549871C3
:100270000ED7F383FA24A390F9A7C86212C302B67B
:1002800011406944E5B33957E63052A5C20C41FB31
:10029000C18F2A09357C7A1A36FF11E8DD9BDB3CD9
:1002A000DE18B0CE2AEBE0DD29688B2F783BF68292
:1002B0007BB89D708F4BCD638CC8A69167AC6C45A5
:1002C000642F07B790DC57A4935F3C56B7632F08A1
:1002D000B4E044FA401314E943907F1BA8F4B5CF6F
:1002E000AB77DE3D5F848E2E5C07E5DC17FCA892C1
:1002F000147FC360E08C9373E30FF881086B325571
:100300000BE859A7FF1B09B4FC986246D8A47118E2
:10031000DB271AEA2FD44AF92C57210BC733EBDF1E
:10032000C4B0802D3043D03E33C0BBCCA6B54BA269
:10033000A536205051C5704352461BB1B922D16534
:10034000BAA1BA974E52EA844DD1817669ED9228CE
:100350006A6EF9DA9E9DA9C99D1EC23B767A08EFA6
:1003600075F9631D810A330E828958FCC97215B272
:10037000CAF17E403E022E533D8145A1D6E58F75E0
:10038000D566E4872195B4942216DF66062ACC3818
:1003900005A9A7CAF15AF7D9F2D99C2B19BD56FF66
:1003A0001A3E3D0DEECD6D1EED4E06ECC4268DC3FE
:1003B000C7A5E6313356B62230D5DDD0DBB1170400
:1003C000D8327CF62CC12CE52F4247170B7E5449BE
:1003D00008FD3FBBFC0E6FA8FF8D045A14E9CE8EBA
:1003E000176AA57CE399F56FE01A9E9DABE1D3D324
:1003F000A862B8215C91E8325F1283C0B4764914D8
:10040000B7F522E6430672F54085190764B90A5923
:10041000673A61AB93C931B8904A5A4A7B2E909E95
:1004200078ADFB6C8C5EAB7F8FDDC08D1AA830E39E
:10043000192B5B11EDD80B02EE5B60F0053FAA248F
:1004400006BCC1D6F24F91C5F1CCFA37D5F0E969B7
:10045000D673829B2280D2882103B97ACA6773AE91
:10046000C9E4185C3D17484F3E9423BD756F6EF389
:1004700076EC0501821F5512819C3EE06AF8F43447
:10048000697B9FC69D88CFD59E0BA427BA37B779C5
:10049000B9B4DC8B4D478C984EC4E76AA5A02DBE3D
:1004A000A623464C52D0165F51537DAD0501090578
:1004B000A1011500250135004501750195100509BB
:1004C00019012910810205012507463B0175049594
:1004D0000165140939814265009501810126FF00FB
:1004E00046FF000930093109320935750895048144
:1004F000020600FF0920950181020A212695089134
:1005000002C012010002000000400D0F9200000125
:10051000010200010902290001010080FA0904001A
:10052000000203000000092111010001225600070A
:100530000502034000080705810340000804030981
:10054000041C0348004F0052004900200043004FA4
:10055000002E002C004C00540044002E000000240B
:100560000350004F004B004B0045004E002000435D
:10057000004F004E00540052004F004C004C00450C
:100580000052000000D5738162EED5E1EB87FB32AB
:1005900090FD4C66EF8B83F4D8CD3598F89A070818
:1005A000C5E3DEEF34208E99125EC41094D3948A92
:1005B0000D8A77CD128360E601000102000102007E
:1005C00001020300000001010102020211241FBE0A
:1005D000CFEFDAE0DEBFCDBF11E0A0E0B1E0ECEBA1
:1005E000FDE302C005900D92A835B107D9F712E0DE
:1005F000A8E5B1E001C01D92AE36B107E1F70E9457
:1006000084130C94DC1EFCCC882321F028985D9880
:10061000479A0895289A5D9A47980895209A559A7E
:100620003F9A80E0F1CF289B03C02898479808950F
:10063000289A479A08959C01409110025091110206
:100640004617570718F4F90190E043C0611571058A
:1006500011F0AB01F8CF8091E8008E778093E8002D
:1006600040E050E0F0CF80910902882309F447C0B0
:10067000853009F446C08091E80083FD44C0809134
:10068000E80082FD36C08091E80080FF22C08091A2
:10069000F3009091F200782F60E0292F30E0262BB4
:1006A000372B07C081918093F100415050402F5F5C
:1006B0003F4F4115510519F02034310598F390E072
:1006C0002034310509F491E08091E8008E77809321
:1006D000E8004115510539F6992329F60AC08091A1
:1006E0000902882361F0853061F08091E80083FD84
:1006F0000AC08091E80082FFF2CF80E0089582E096
:10070000089583E0089581E008959C0140911002CE
:10071000509111024617570718F4F90190E044C0B0
:100720006115710511F0AB01F8CF8091E8008E776B
:100730008093E80040E050E0F0CF809109028823E8
:1007400009F448C0853009F447C08091E80083FD72
:1007500045C08091E80082FD37C08091E80080FFAD
:1007600023C08091F3009091F200782F60E0292F50
:1007700030E0262B372B08C084918093F10031960E
:10078000415050402F5F3F4F4115510519F0203423
:10079000310590F390E02034310509F491E0809127
:1007A000E8008E778093E8004115510531F69923D2
:1007B00021F60AC080910902882361F0853061F03A
:1007C0008091E80083FD0AC08091E80082FFF2CFAB
:1007D00080E0089582E0089583E0089581E008951F
:1007E000BF92CF92DF92EF92FF920F931F93CF931E
:1007F000DF93182F092F7B016A01EFD0B82E8823D1
:10080000B1F5812F902F9C01E901C114D10439F079
:10081000F60180819181E81AF90AC80FD91F00E01A
:1008200010E022C08091E80085FD16C08091E800AC
:100830008B778093E8009BD3C114D10449F0F60173
:1008400080819181800F911F9183808385E010C00A
:10085000C4D0882349F00CC08091F100899308949A
:10086000E108F1080F5F1F4FE114F104D9F68B2D59
:10087000DF91CF911F910F91FF90EF90DF90CF907C
:10088000BF900895BF92CF92DF92EF92FF920F93A5
:100890001F93CF93DF93182F092F7B016A019DD0FF
:1008A000B82E8823B1F5812F902F9C01E901C11446
:1008B000D10439F0F60180819181E81AF90AC80F54
:1008C000D91F00E010E022C08091E80085FD16C02D
:1008D0008091E8008E778093E80049D3C114D10459
:1008E00049F0F60180819181800F911F918380836F
:1008F00085E010C072D0882349F00CC089918093A4
:10090000F1000894E108F1080F5F1F4FE114F104B2
:10091000D9F68B2DDF91CF911F910F91FF90EF9022
:10092000DF90CF90BF900895382F282F2EC0822FB0
:100930008F708093E900231721F4762F942F50E0D5
:1009400006C07091EC009091ED005091F00091FF85
:100950001BC08091EB008E7F8093EB008091ED00B7
:100960008D7F8093ED008091EB0081608093EB00A0
:100970007093EC009093ED005093F0008091EE00A6
:1009800087FD02C080E008952F5F273080F23F701E
:100990003093E90081E0089580910A0288239CF455
:1009A00004C0809109028823B9F08091E80082FF99
:1009B000F8CF8091E8008B778093E80008958091CC
:1009C0000902882349F08091E80080FFF8CF8091E8
:1009D000E8008E778093E80008954091E4005091FC
:1009E000E50024E68091EC0080FF24C08091E800BF
:1009F00080FD1EC080910902882311F482E00895D1
:100A0000853011F483E008958091EB0085FF02C0EA
:100A100081E008958091E4009091E50084179507A6
:100A200009F3222311F484E008952150AC01DACFB8
:100A300080E008958091E80082FFDCCFF9CFEF924B
:100A4000FF920F931F934FD056D008ED10E0F8019E
:100A500080818F77808380818068808380818F7D93
:100A6000808319BC109209021092050210920702AD
:100A70001092060280EEE82EF12CF70180818B7F28
:100A80008083F80180818160808380E060E042E3C0
:100A90004BDFE1EEF0E080818E7F8083E2EEF0E0DC
:100AA000808181608083808188608083F70180817C
:100AB0008E7F8083F8018081806180831F910F91F8
:100AC000FF90EF900895E8EDF0E080818F7E8083C5
:100AD000E7EDF0E080818160808384E082BF81E087
:100AE00080930802ACCFE8EDF0E080818E7F8083B8
:100AF0001092E20008951092DA001092E100089539
:100B00001F920F920FB60F9211242F933F934F9382
:100B10005F936F937F938F939F93AF93BF93EF9365
:100B2000FF938091E10082FF0AC08091E20082FF82
:100B300006C08091E1008B7F8093E10017D2809105
:100B4000DA0080FF1DC08091D80080FF19C080911D
:100B5000DA008E7F8093DA008091D90080FF0CC08C
:100B600080E189BD82E189BD09B400FEFDCF81E04D
:100B7000809309028CD304C019BC1092090288D357
:100B80008091E10080FF18C08091E20080FF14C0D6
:100B90008091E2008E7F8093E2008091E20080618C
:100BA0008093E2008091D80080628093D80019BCC5
:100BB00085E080930902DAD18091E10084FF2FC0A3
:100BC0008091E20084FF2BC080E189BD82E189BD74
:100BD00009B400FEFDCF8091D8008F7D8093D800AE
:100BE0008091E1008F7E8093E1008091E2008F7E12
:100BF0008093E2008091E20081608093E200809126
:100C00000502882311F084E007C08091E30087FD8E
:100C100002C081E001C083E080930902A7D18091E6
:100C2000E10083FF22C08091E20083FF1EC080911B
:100C3000E100877F8093E10082E0809309021092B7
:100C400005028091E1008E7F8093E1008091E200B7
:100C50008E7F8093E2008091E20080618093E200C9
:100C600080E060E042E360DE81D1FF91EF91BF91CF
:100C7000AF919F918F917F916F915F914F913F9134
:100C80002F910F900FBE0F901F9018951F93DF9319
:100C9000CF93CDB7DEB7AC970FB6F894DEBF0FBEDB
:100CA000CDBFEAE0F2E08091F100819322E0E231F1
:100CB000F207C9F7EED28091E80083FF3FC180912F
:100CC0000A0230910B02353009F48DC0363040F401
:100CD0003130E1F1313070F0333009F02FC136C0DE
:100CE000383009F4FDC0393009F40CC1363009F050
:100CF00025C19CC0803821F0823809F01FC108C08E
:100D000090910602809107028823B1F0926014C08E
:100D100080910E028F70873008F010C18093E90037
:100D20008091EB0090E025E0969587952A95E1F774
:100D3000982F91701092E9008091E800877F80934E
:100D4000E8009093F1001092F100D5C0882319F0CB
:100D5000823009F0F3C090E08F719070009721F01D
:100D6000029709F0EBC00CC080910C02813009F0B1
:100D7000E5C010920702333081F5809307022DC041
:100D800080910C02882349F520910E022F70822F4A
:100D90008150863008F0D2C02093E9008091EB00AA
:100DA00080FF1BC0333021F48091EB00806213C0C0
:100DB0008091EB0080618093EB0081E090E002C0C5
:100DC000880F991F2A95E2F78093EA001092EA00B3
:100DD0008091EB0088608093EB001092E900809195
:100DE000E800877F8BC0882309F0A8C010910C020F
:100DF0001F778091E3008078812B8093E3008091BE
:100E0000E800877F8093E800C7DD8091E80080FFDD
:100E1000FCCF8091E30080688093E300112311F4FC
:100E200082E001C083E08093090288C0805882304C
:100E300008F084C080910C0290910D0223E08C3D5B
:100E4000920709F033C083E08C838AE28B837FB7FB
:100E5000F894DE0115966EE040E050E011E2E62FD6
:100E6000F0E010935700849140FF03C082958F708B
:100E70006F5F8F70282F30E08A3018F0C901C79655
:100E800002C0C901C0968D939D934F5F5F4F44315F
:100E9000510529F77FBF8091E800877F8093E800A4
:100EA000CE0103966AE270E0C6DB14C060910E02C8
:100EB00070910F02AE014F5F5F4FA0D1BC01009750
:100EC00009F43CC08091E800877F8093E800898125
:100ED0009A811BDC8091E8008B778093E8002EC01C
:100EE000803861F58091E800877F8093E8008091E9
:100EF00005028093F1008091E8008E778093E800EE
:100F00004BDD1CC08823D1F490910C029230B0F4D8
:100F10008091E800877F8093E800909305023CDD94
:100F200080910502882331F48091E30087FD02C09F
:100F300081E001C084E0809309021AD28091E80028
:100F400083FF0AC08091E800877F8093E80080914A
:100F5000EB0080628093EB00AC960FB6F894DEBF96
:100F60000FBECDBFCF91DF911F91089508951F93BC
:100F700080910902882371F01091E9008091EC00C2
:100F80001092E9008091E80083FF01C07FDE1F70AE
:100F90001093E9001F91089581E036CB3FCB08956F
:100FA0006F927F928F929F92AF92BF92CF92DF9279
:100FB000EF92FF920F931F93DF93CF9300D000D057
:100FC000CDB7DEB77B018C014A015901CC24DD2469
:100FD0003E010894611C711C20C0F401EC0DFD1D44
:100FE00060816E2570E0660F771F660F771F64556E
:100FF0007F4FC30144E050E00E94CA1EEF2CF02E48
:10100000012F112789819A81AB81BC81E826F926BD
:101010000A271B270894C11CD11CCA14DB04E8F260
:10102000B701C8010F900F900F900F90CF91DF91F3
:101030001F910F91FF90EF90DF90CF90BF90AF90F6
:101040009F908F907F906F900895EF92FF920F93F3
:101050001F937C018B01045010406FEF7FEF8FEFE7
:101060009FEFA70198019CDF0E0D1F1DF801608303
:101070007183828393831F910F91FF90EF90089566
:101080009B01AC01F89460E079E08DE390E00E9470
:10109000A81E215030404040504056954795379506
:1010A00027953093CD002093CC0082E08093C80038
:1010B00088E98093C90086E08093CA0010926B0192
:1010C00080916B0180936A011092B5018091B50106
:1010D0008093B4017894089590916A019F5F923152
:1010E00008F090E080916B0120E0891321E0822FCD
:1010F0000895282F90916A019F5F923108F090E047
:1011000080916B018917E1F3E92FF0E0E85AFE4F77
:10111000208390936A0188EB8093C9000895909191
:10112000B4018091B50120E0981321E0822F089549
:101130009091B4018091B5019817D1F39091B501C8
:101140009F5F983408F090E0E92FF0E0E459FE4FFB
:1011500080819093B50108951F920F920FB60F9260
:1011600011248F939F93EF93FF9390916A01809145
:101170006B01981721F488E98093C9000FC0909102
:101180006B019F5F923108F090E0E92FF0E0E85AA0
:10119000FE4F80818093CE0090936B01FF91EF9181
:1011A0009F918F910F900FBE0F901F9018951F92D7
:1011B0000F920FB60F9211242F938F939F93EF935B
:1011C000FF932091CE009091B4019F5F983408F076
:1011D00090E08091B501981739F0E92FF0E0E459DB
:1011E000FE4F20839093B401FF91EF919F918F91D7
:1011F0002F910F900FBE0F901F901895DA0193302A
:10120000B1F0943028F4913041F0923079F50AC071
:10121000913211F1923251F524C0E2E0F5E022E181
:1012200030E028C0E4E1F5E029E230E023C081307D
:1012300049F0813018F08230C9F40AC0EDE3F5E0DE
:10124000849103C0E1E4F5E08491282F30E012C0DE
:10125000EFE5F5E08491F9CFE6E2F5E029E030E052
:1012600009C0ECEAF4E026E530E004C0E0E0F0E09C
:1012700020E030E0ED93FC93C90108956091B60140
:101280007091B7018091B8019091B90108950895C6
:10129000089508956CCE08950F931F93DF93CF9315
:1012A000CDB7DEB72F970FB6F894DEBF0FBECDBF18
:1012B000288739874A875B876C877D878E879F87DA
:1012C00080910902843009F047C082E08093E900F0
:1012D0008091E80082FF14C08091E80085FF0BC078
:1012E0008E010F5F1F4FC80167E070E040E050E0E3
:1012F00077DA8823C1F78091E8008B778093E80044
:1013000081E08093E9008091E80080FF25C08E0194
:10131000085F1F4FC80168E070E040E050E0B2DABB
:101320008823C1F78091E8008E778093E800809150
:10133000B6019091B701A091B801B091B9010196A1
:10134000A11DB11D8093B6019093B701A093B80180
:10135000B093B90181E001C080E02F960FB6F894F8
:10136000DEBF0FBECDBFCF91DF911F910F910895CA
:1013700082E060EC42E3D8DA81E061EC42E3D4CA77
:101380009091BF018091C001891719F420E030E0ED
:1013900010C0892F90E083709070880F991F9C0176
:1013A00043E0220F331F4A95E1F7281B390B2E5ECD
:1013B0003D4FC90108950F931F93CF93DF93809101
:1013C000C801882309F043C08091BF0190E0837079
:1013D0009070880F991FFC0163E0EE0FFF1F6A9564
:1013E000E1F7E81BF90BEE5EFD4F8DEE808385E49F
:1013F00081838F010E5F1F4F82819381A481B5810C
:10140000E8018C839D83AE83BF83809142019091DC
:101410004301A0914401B091450182839383A48349
:10142000B5830196A11DB11D8093420190934301A4
:10143000A0934401B093450121DFF80160877187D3
:10144000828793878091BF018F5F8093BF01DF9177
:10145000CF911F910F910895CF93DF93EC010EDF91
:101460006093BA017093BB018093BC019093BD015E
:101470006091BE018091BF01861701F1862F90E037
:1014800083709070FC01B3E0EE0FFF1FBA95E1F797
:10149000E81BF90BEE0FFF1FEC5EFD4F2881398131
:1014A0004A815B8180819181A281B38128173907AC
:1014B0004A075B0719F46F5F6093BE01DF91CF911C
:1014C0000895481711F480E00895842F1FD181E01A
:1014D00008950F931F938C011092BE011092BF01CB
:1014E0001092C0011092C101B8D4F80160817181DD
:1014F00082819381A9D01F910F910895FC012091C1
:10150000C001622F70E08091BE01AB01481B510900
:101510004430510514F080E00895408140954450D6
:101520002F5F2093C001CB0183709070880F991FAB
:101530009C0153E0220F331F5A95E1F7281B390B0A
:101540002E5E3D4FC901BF0150E00E94D31E81E0D5
:1015500008959091BF018091BE01981709F440C091
:101560002091C101291721F12F5F2093C101215042
:1015700030E023703070220F331FC90173E0880FF1
:10158000991F7A95E1F7821B930B8E5E9D4FADD12B
:101590009091C1018091BF01981701F56FDE6093B2
:1015A000BA017093BB018093BC019093BD0116C03A
:1015B00065DE2091BA013091BB014091BC01509190
:1015C000BD01621B730B840B950B60587240804009
:1015D000904030F08091BE018093C10181E0089578
:1015E00080E008956A5F6093C401962F9095909370
:1015F0004A0280934B028AE492E070E026CDEF929B
:10160000FF920F931F937B018C018091C40188236B
:1016100011F080E014C0E0924C02F0924D02009371
:101620004E0210934F022093500230935102409388
:1016300052025093530284E168E0D4DF81E01F91AD
:101640000F91FF90EF9008959B01AC018091C40130
:10165000882311F080E0089520934C0230934D02CE
:1016600040934E0250934F0281E164E0BBDF81E082
:1016700008959B01AC018091C401882311F080E0A2
:10168000089520934C0230934D0240934E025093A4
:101690004F0280E164E0A6DF81E008959C01809123
:1016A000C401882311F080E0089530934D02209307
:1016B0004C0287E062E096DF81E0089560934C027F
:1016C00070934D0280934E0290934F0286E064E047
:1016D00089DF81E0089560934C0270934D028093FE
:1016E0004E0290934F0285E064E07CDF81E0089534
:1016F00080934C0283E061E075DF81E00895809380
:101700004C0282E061E06EDF81E0089580934C023C
:1017100081E061E067DF81E008958091C401882362
:1017200011F080E0089580E060E05CDF81E00895E2
:10173000EF92FF920F931F93CF93DF93EB018334CC
:1017400009F475C0843440F4813441F1823408F0E6
:1017500045C0803439F408C0843409F489C0863423
:1017600009F493C080E09BC0443009F090C00E940F
:10177000130388819981AA81BB810196A11DB11DA6
:101780008093460190934701A0934801B09349018B
:10179000688179818A819B8157DF80C0443009F05C
:1017A00076C080E00E9404038EE08093C40181EF44
:1017B00080934A0284E180934B0288819981AA81B7
:1017C000BB8180934C0290934D02A0934E02B09344
:1017D0004F0280EC90EDA6E7B8E71CC0443009F05A
:1017E00056C08EE08093C40181EF80934A0284E169
:1017F00080934B0288819981AA81BB8180934C029E
:1018000090934D02A0934E02B0934F0284EA93E965
:10181000A7E7B8E78093500290935102A093520239
:10182000B09353028AE492E06EE070E01FC044304F
:1018300071F58BE08093C40184EF80934A0282E1CA
:1018400080934B0288819981AA81BB8180934C024D
:1018500090934D02A0934E02B0934F028091C2012B
:10186000809350028AE492E06BE070E0EEDB16C0F9
:10187000443069F4E880F9800A811B81FFDC9B0118
:10188000AC01C801B701BBDE09C0443019F0842F98
:101890003DDF04C0222311F0CB011BDE81E0DF918C
:1018A000CF911F910F91FF90EF900895833018F41E
:1018B000813038F414C0843021F0813161F080E04F
:1018C000089582E18093C401EAE4F2E0DF011D9211
:1018D0008A95E9F704C0443021F0842F17DF81E0B6
:1018E0000895CB01B9DD81E008950F931F93FC01AA
:1018F000208120952093C4010AE412E030E02450B6
:101900003040C801BF01A9010E94D31E6091C401EB
:10191000C80170E09ADB1F910F9108950F931F93F8
:10192000FEDB882319F41092C60168C01091C5012E
:10193000FFDBE12FF0E0E45AFD4F80831F5F10933F
:10194000C50180915C02082F0095113059F588235C
:1019500059F41092C5018091C601813009F0DDDE95
:1019600081E08093C6014AC0063010F00331D0F008
:101970001092C5018091C601823011F0802FC6DE21
:1019800082E08093C60139C0CADB8823B1F110918F
:10199000C501CEDBE12FF0E0E45AFD4F80831F5FED
:1019A0001093C5012091C501201770F330E0245039
:1019B00030406FEF7FEF8FEF9FEF4CE552E0F0DAB2
:1019C000E091C501F0E0E85AFD4F2081318142816C
:1019D0005381621773078407950759F01092C50168
:1019E0008091C601823049F0802F89DE0093C401C6
:1019F00004C01092C60182E001C081E01F910F91E6
:101A000008958091C401882389F4089565DB8823B3
:101A100011F481E008959091C301E92FF0E0E65BB5
:101A2000FD4F80819F5F9093C30163DB9091C30161
:101A30008091C401981750F31092C3011092C40111
:101A400080E00895BF92CF92DF92EF92FF920F93C2
:101A50001F93D7DF882309F091C060DF882311F43A
:101A600078DD8DC0813009F489C0B090C5018AEF5E
:101A7000B80E1092C501D0905D028FE38D1548F02D
:101A80008D2D6EE572E04B2D11DF882309F076C0B5
:101A900053C0E0905E02F0905F02009160021091EE
:101AA00061022091460130914701409148015091D7
:101AB0004901CC24E216F3060407150719F4CC24D7
:101AC000C39412C0D801C701821B930BA40BB50BA2
:101AD000181619061A061B063CF480E4D81621F0E5
:101AE000CA01B901F8DD4AC08D2D807C8034C1F473
:101AF0008D2D6EE572E04B2D2C2D1ADE882369F4B6
:101B0000E091C901F091CA013097B1F08D2D6EE5D9
:101B100072E04B2D0995882379F0CC2079F117C01C
:101B2000CC2021F4C801B701A4DD28C08091CB01ED
:101B30009091CC01892B19F48D2DDADD1FC08CE535
:101B400092E0DCDC8823B9F0C801B70192DD809116
:101B5000460190914701A0914801B0914901019639
:101B6000A11DB11D8093460190934701A0934801A8
:101B7000B093490103C0C801B701A0DD81E01F9106
:101B80000F91FF90EF90DF90CF90BF900895EF926C
:101B9000FF920F931F9320914A0130914B01409186
:101BA0004C0150914D01DA01C9016DE0880F991F78
:101BB000AA1FBB1F6A95D1F782279327A427B527B1
:101BC0007C018D0121E116950795F794E7942A95FC
:101BD000D1F7E826F9260A271B27A801970185E0F7
:101BE000220F331F441F551F8A95D1F72E253F25FD
:101BF0004027512720934A0130934B0140934C01D9
:101C000050934D01B901CA011F910F91FF90EF90C0
:101C10000895FC01DB01118210821D921C92FA01D1
:101C200010820895089590E0FC01EB57FA4FE4917B
:101C300023E3629FB0011124680F791FE62787EC28
:101C400090E0E89F802D112408951F93CF93DF9398
:101C5000C1EDD1E010E0812F6091D001E4DF8993E4
:101C60001F5F1333C1F7DF91CF911F910895DF926A
:101C7000EF92FF920F931F9393E0899FC00111246D
:101C8000F82EE090D0016E2DCEDFD82E0F2D10E073
:101C90008F2D8F5F6E2DC7DF0F521E4FF801918180
:101CA000582F592740E020812D2530E0242B352B5B
:101CB000C9011F910F91FF90EF90DF9008950F934E
:101CC0001F9393E0899F800111240E5F802F609104
:101CD000D001A9DFE1EDF1E0E00FF11D908189274E
:101CE00090E01F910F9108951F93182FC0DF892B4B
:101CF00019F080E090E009C0812FE1DF20E0892B1E
:101D000009F021E081E02827822F1F910895DF92BA
:101D1000EF92FF920F931F93F62EE72E93E0899F89
:101D2000C0011124D82E082F10E06091D0017BDF74
:101D30000F521E4FF826F801F0828D2D8F5F6091B3
:101D4000D00171DFE826F801E1821F910F91FF9029
:101D5000EF90DF900895FF920F931F93F62E93E07C
:101D6000899F800111240E5F802F6091D0015BDF7D
:101D7000E1EDF1E0E00FF11DF826F0821F910F91E7
:101D8000FF900895EF92FF920F931F93CF93DF93ED
:101D90008091CF01882309F43BC00091500110913C
:101DA0005101C0E0D0E071E0E72EF12C8C2F5FDF15
:101DB000892B59F4C7010C2E02C0880F991F0A9471
:101DC000E2F780959095082319232196CE30D1050E
:101DD00069F710935101009350018EE048DF892B81
:101DE00019F488E0809352018FE041DF892B29F4B8
:101DF00080E8809353018093540180E138DF892B80
:101E000029F480E880935501809356011092CF0108
:101E1000DF91CF911F910F91FF90EF9008958091E6
:101E2000500190915101892BA9F480915201883081
:101E300089F480915301803869F48091540180388D
:101E400049F480915501803829F490E08091560141
:101E5000803809F091E0892F08951F9381E08093E5
:101E6000C8018093CF0110E0812F60E070E04FDF68
:101E7000812F60E070DF1F5F1131B1F783DF1F91A9
:101E80000895FF920F931F93CF93DF937BDF2091F1
:101E90005001309151014091520150915301609194
:101EA0005401709155018091560190915701F4D9D8
:101EB000F82EF0D9FF2011F411E037C010E0812F87
:101EC000D6DEEC01812FFBDE682F8091C8018823CC
:101ED00021F000E0C0E0D0E007C0062F209711F00D
:101EE000219702C0611101508091D0018F5F8093D2
:101EF000D001812FBE010BDF812F602F2CDF80915D
:101F0000D00181508093D0018F5F1F5F1131B9F6EE
:101F10008093D00181E08093CF01E091CD01F091D9
:101F2000CE01309709F0099512E38CDD882311F07A
:101F30001150D9F78F2DDF91CF911F910F91FF9005
:101F40000895DF92EF92FF920F931F93CF93DF9349
:101F5000F82EE62ED42EE9018091C801882319F0CD
:101F600090DF81E01DC0FF2011F410E101C01FE0EF
:101F7000812FBADE8823A1F0812FBE01C8DE812F18
:101F8000602FE9DEFF2029F0E0925301D092540146
:101F900004C0E0925501D092560181E08093CF01B8
:101FA000DF91CF911F910F91FF90EF90DF900895F7
:101FB0000F931F93CF93DF93082FEB01142F809182
:101FC000C801882319F05DDF81E00FC08EE08CDE50
:101FD000882359F08EE0BE019ADE8EE0612FBBDED1
:101FE0000093520181E08093CF01DF91CF911F9147
:101FF0000F9108956F927F928F929F92AF92BF92AE
:10200000CF92DF92EF92FF920F931F93CF93DF93C4
:102010006C015B01742E8091C801882311F031DFBF
:1020200044C0C0E0D0E001E010E0C8010C2E02C0C6
:10203000880F991F0A94E2F78C219D21892B21F0AA
:102040008C2F52DE882391F12196CE30D10569F78D
:102050000091500110915101C0E0D0E0E1E08E2EDE
:10206000912C6624639474010C2E02C0EE0CFF1CAC
:102070000A94E2F7C7018C219D21892B71F08C2FE6
:1020800033DE882351F08C2FB50141DE8C2F672D74
:1020900062DE0E291F296092CF012196CE30D10534
:1020A00011F7109351010093500181E0DF91CF911E
:1020B0001F910F91FF90EF90DF90CF90BF90AF9066
:1020C0009F908F907F906F9008951F9311E005C0AF
:1020D00010E08091C801882361F4D3DE8823C1F326
:1020E000112339F08091C801882319F481E090E030
:1020F000D5DA1F910895A2C20895BDC00895EF9248
:102100000F931F93CF93DF93982F762F8A01E901C6
:102110004530510510F405E010E080E0692F472FAD
:102120009801EE244ED1CE01E8DFDF91CF911F91CF
:102130000F91EF900895EF920F931F93CF93DF933A
:10214000982F762F8A01E9014530510510F405E0FA
:1021500010E081E0692F472F9801EE2432D1CE01A3
:10216000CCDFDF91CF911F910F91EF900895CF9326
:10217000DF939B01EA016530710510F425E030E042
:10218000B901A90120E08BD1CE01B7DFDF91CF915A
:102190000895CF93DF939B01EA016530710510F438
:1021A00025E030E0B901A90120E068D2CE01A5DF29
:1021B000DF91CF9108950F931F9300914E011091DD
:1021C0004F0129E03EE030934F0120934E010E94E1
:1021D000040310934F0100934E011F910F91089536
:1021E0000F931F93CF93DF938C01C0E0D0E00BC01F
:1021F00081E0E1DF89E190E080DF80E0DCDF89E100
:1022000090E07BDFE296C017D10790F3DF91CF918A
:102210001F910F9108958093C20184B7877F84BF77
:1022200088E10FB6F89480936000109260000FBEB2
:10223000E1E6F0E080E88083108260E072EC81E00B
:1022400090E00E9440080E9463057894FECC8130A3
:1022500029F0813030F0823051F406C020E430E0C3
:1022600008C024E030E005C020E830E002C020E0F3
:1022700030E0C90108950F931F93CF93DF938C0132
:10228000C0E0D0E006C08091C801882329F41DDF9A
:102290002196C017D107B8F3DF91CF911F910F910D
:1022A0000895DF92EF92FF920F931F93CF93DF93E6
:1022B0007C01EB01D42E6BDC162F13701330D9F395
:1022C00000E0113029F0113030F0123051F406C026
:1022D000EAEDF1E108C0E6E3F2E105C0E3EDF1E18A
:1022E00002C0E0E0F0E0C701BE014D2D0995882352
:1022F00011F081E008C01F5F133009F410E00F5F98
:102300000330F9F680E0DF91CF911F910F91FF909C
:10231000EF90DF900895DF92EF92FF920F931F935B
:10232000CF93DF938C017B01EA01D22E8091C8010B
:10233000882311F009C0C9DEC801BE014D2DB1DFEF
:102340008823C9F3C70197DFDF91CF911F910F91C8
:10235000FF90EF90DF90089545E050E023E0DBCF61
:102360000F93FA01022F6230710591F0633071050D
:1023700018F4672B41F00AC06430710559F06630DB
:10238000710521F40AC060E840E009C060E806C0B9
:102390006FEF04C060E84FEF02C060E040E89F01CB
:1023A000D0DD0F910895FC01DB01242F80E0BF01F7
:1023B000AD01D6CFFC01DB01242F81E0BF01AD01CF
:1023C000CFCFCF92DF92EF92FF920F931F93DF93C5
:1023D000CF9300D000D00F92CDB7DEB7C82ED62E47
:1023E000F42E3A8329831C830B83ED828091C801EC
:1023F0008823D9F4E0914E01F0914F01CE0101966E
:10240000BE016D5F7F4FAE014B5F5F4F099501C00D
:102410005CDE2B813C818C2D6D2D4F2D0D8191DD4E
:102420008823B1F389819A8126DF0F900F900F9056
:102430000F900F90CF91DF911F910F91FF90EF9030
:10244000DF90CF900895EF920F931F938901EE24B0
:10245000B8DF1F910F91EF900895EF920F931F93A4
:10246000EE24AFDF1F910F91EF9008958230910518
:1024700081F08330910518F4892B39F008C084303D
:10248000910549F0069719F408C080E007C088E07C
:1024900005C082E003C084E001C086E089CD1F93BF
:1024A000DF93CF9300D000D00F92CDB7DEB7182FB7
:1024B0007A8369835C834B832D838091C801882351
:1024C000C9F4E0914E01F0914F01CE010196BE0199
:1024D0006D5F7F4FAE014B5F5F4F099501C0F5DD2A
:1024E0006B817C81812F4D8163DD8823C1F38981DC
:1024F0009A81C1DE0F900F900F900F900F90CF91A7
:10250000DF911F91089545E050E023E0C8CF23E01C
:10251000C6CFEF92FF920F931F93CF93DF937C016F
:1025200010E0C0E0D0E022C08091C801882309F506
:10253000112321F0CADD2196115018C028DB162F77
:1025400013701330D9F300E0812F81DE65E070E075
:1025500043E050DD882311F013E008C01F5F133003
:1025600009F410E00F5F033079F711E0CE15DF05B5
:10257000D8F2DF91CF911F910F91FF90EF900895C6
:10258000AF92BF92CF92DF92EF92FF920F931F9381
:10259000CF93DF935C016B017A018091C80188239E
:1025A00009F041C0C0E0D0E002C08FDD2196C50136
:1025B00065E070E043E01EDD8823B9F384E090E03D
:1025C0005ADE02C082DD2196C60165E070E043E07C
:1025D00011DD8823B9F3CE15DF0528F58091C801F8
:1025E000882309F5C50165E070E043E003DD8E0155
:1025F0000C5F1F4FCE15DF05B0F467DD2196C017C5
:10260000D107C1F7C60165E070E043E0F3DC8E015D
:102610000C5F1F4FCE15DF0530F457DD2196C01734
:10262000D107C1F7DBCFDF91CF911F910F91FF90C1
:10263000EF90DF90CF90BF90AF900895EF92FF9210
:102640000F931F93CF93DF937C018B01C0E0D0E009
:102650000BC08091C801882351F4C70165E070E088
:1026600043E0C8DC32DD2196C017D10790F3DF913B
:10267000CF911F910F91FF90EF9008950F931F93AB
:10268000DF93CF9300D000D00F92CDB7DEB78C018F
:102690007A8369835C834B832D838091C80188236F
:1026A000C9F4E0914E01F0914F01CE010196BE01B7
:1026B0006D5F7F4FAE014B5F5F4F099501C005DD38
:1026C0006B817C81C8014D8195DC8823C1F38981B0
:1026D0009A81D1DD0F900F900F900F900F90CF91B6
:1026E000DF911F910F91089545E050E023E0C6CFA0
:1026F00023E0C4CF8091C801882311F00895E5DC60
:102700008EDB8823E1F70895CF93DF930E94CE07F5
:1027100089E081DD809100019091010161DD8FE10F
:1027200096E19093CC018093CB018091C8018823DE
:1027300029F01092C80180E00E940403A2DB0E94ED
:10274000C009EC01009789F3BC016E5F7F4F48819F
:1027500040954650E091CB01F091CC0189810995DB
:10276000882319F789810E94780BDFCF882339F0FD
:1027700080E090E16AE070E04AE550E006C080E069
:1027800090E16AE070E04EEB50E003DD80E090E124
:102790006AE070E040E050E0FCCCAF92BF92CF9294
:1027A000DF92EF92FF920F931F938C017B016A01DE
:1027B000590188E090E062E370E040DF09581E4F65
:1027C00088E090E064E070E0A801DADE88E090E064
:1027D000B70134DFC6019DDEC5018FDC1F910F916B
:1027E000FF90EF90DF90CF90BF90AF90089588E07A
:1027F00090E064E670E022DF88E090E064E070E062
:1028000042E350E0BDDE88E090E060E971E016CF81
:102810000F931F938C0183E090E06FDCC80160E0B0
:1028200070E09ADD1F910F910895DF92EF92FF9271
:102830000F931F93CF93DF93F42E282F30E0C9011D
:1028400088549A4FFC0194912E533A4FF901849188
:10285000262F30E0F901E854FA4FD4902E533A4F26
:10286000F901E490092F182FC0E0D0E02AC0E1164A
:1028700040F4FF2019F080E090E0CADF2396115069
:1028800020C01E1558F4FF2019F084E090E0C0DF4E
:1028900023961F5F1330A9F401E013C00D1540F417
:1028A000FF2019F082E090E0B3DF23960F5F09C0AC
:1028B000D01638F4FF2019F086E090E0A9DF2396C7
:1028C00001500D15A1F61E1591F6CE01DF91CF91A5
:1028D0001F910F91FF90EF90DF900895EF92FF927C
:1028E0000F931F93E82EF62E82E090E064E070E0F4
:1028F00033DD82E090E064E070E02EDD84E090E083
:1029000063E070E029DD84E090E064E070E024DDC5
:1029100082E090E060E070E01FDD84E090E063E042
:1029200070E0E2DE84E090E063E070E0DDDEFF2056
:1029300011F404E301C003E310E084E090E063E0FD
:1029400070E00ADD1F5F1017C0F3FF2019F46DE27D
:1029500070E002C068E270E082E090E0FDDC84E0BC
:1029600090E063E070E0F8DC84E090E063E070E029
:10297000F3DC84E090E06AE070E0EEDC84E06DE29D
:1029800070E048E250E0C3DD84E090E063E070E096
:10299000E3DC84E090E063E070E0DEDCEE2031F424
:1029A00084E090E06DE270E09FDE18C084E090E08B
:1029B00063E070E099DEFF2011F40CE001C00AE052
:1029C00010E084E090E063E070E0C6DC1F5F101769
:1029D000C0F384E090E060E070E0BEDC1F910F91F6
:1029E000FF90EF9008950F931F93882319F413E03D
:1029F00004E002C012E003E084E090E064E170E0F3
:102A00004AE050E075DE80E090E060E070E0A4DC39
:102A100084E090E0612F70E067DE82E090E0602F5C
:102A200070E09ADC80E090E0612F70E095DC82E05D
:102A300090E0602F70E090DC84E090E060E070E077
:102A400053DE82E090E0602F70E086DC82E090E070
:102A5000602F70E081DC82E090E060E070E07CDC80
:102A600084E090E064E170E04AE050E041DE1F91D4
:102A70000F910895FF920F931F93CF93DF93F82E3A
:102A8000882309F458C0662311F404E001C003E070
:102A900084E090E064E170E04AE050E029DE10E07C
:102AA000CF2DD0E0219706C084E090E063E070E095
:102AB00053DC1F5F812F90E08C179D07ACF384E0FF
:102AC00090E060E070E048DC84E090E063E070E07B
:102AD0000BDE82E090E0602F70E03EDC10E006C08C
:102AE00084E090E063E070E037DC1F5F812F90E0CE
:102AF0008C179D07ACF384E090E060E070E02CDC84
:102B000084E090E063E070E0EFDD82E090E0602F31
:102B100070E022DC82E090E0602F70E01DDC82E05B
:102B200090E060E070E018DC84E090E064E170E048
:102B30004AE050E0DDDDDF91CF911F910F91FF90D2
:102B40000895CF93DF93EA018823D1F0CB01D5DA42
:102B500080E060E070E04AE050E0D9DC8AE090E09C
:102B60006DE770E04AE050E0C3DD81E792E0D1DC40
:102B700081E0C53FD80740F0CE01845F914003C09B
:102B8000CB01C7DCCE01B9DADF91CF91089584E0A3
:102B900065E070E04FE050E0BADC82E090E06CE38A
:102BA00070E04AE050E0A4DD84E065E070E04FE0D2
:102BB00050E0ADDC609140017091410182E090E015
:102BC0004AE050E095CDEF92FF921F93CF93DF93B1
:102BD000182F862FEA017901C9DD8AE590E08DDAA8
:102BE000112321F184E06AE070E08DDC80E06AE08E
:102BF00070E089DC84E090E0BE014AE050E078DDDE
:102C000086E06AE070E07FDC84E090E0BE016CDD8D
:102C100081E090E06AE070E067DD86E06AE070E005
:102C200072DC84E090E0B7015FDD03C082E390E0F6
:102C300064DADF91CF911F91FF90EF9008956F922A
:102C40007F929F92AF92BF92CF92DF92EF92FF92CC
:102C50000F931F93DF93CF93CDB7DEB72C970FB6AB
:102C6000F894DEBF0FBECDBF182F6B01042F813942
:102C700009F43EC0823940F4813809F1803959F1B4
:102C8000803809F080C00DC0833909F451C0833900
:102C900008F43FC0843909F45AC0853909F073C07B
:102CA00065C084E00E94610A882329F0802F0E9479
:102CB000860B0C94911E0E94CC070C948F1E85E00D
:102CC0000E94610A882311F00C94911EF601848100
:102CD00072DA0C948F1E86E00E94610A882311F03C
:102CE0000C94911EF6018481958107DA0C948F1E55
:102CF0008AE00E94610A882311F00C94911EF6016B
:102D000066817781408551858481958142DA0C9472
:102D10008F1E89E00E94610A882311F00C94911E95
:102D2000F6016581768147815085848120DAF7C775
:102D30008AE00E94610A882309F0F3C7F601468100
:102D400057812085318584816581F5D9E8C78AE07E
:102D50000E94610A882309F0E4C7F6014681578181
:102D60002085318584816581CAD9D9C788E00E94D0
:102D7000610A882309F0D5C7F601668177818481CD
:102D80009581B9D9CCC780910402882309F49FC0EA
:102D9000173F88F4153F08F055C0123F19F1133F53
:102DA00020F4113F09F093C013C0133F41F1143FC9
:102DB00009F08DC036C0183F09F466C0183F08F40A
:102DC00055C0193F09F4FDC01A3F09F080C06DC01D
:102DD00084E0B601402F0E94610A882309F0A1C750
:102DE00089DC9DC786E0B601402F0E94610A8823D6
:102DF00009F097C7F601848195813DDA90C78BE091
:102E0000B601402F0E94610A882309F08AC7F601A3
:102E100066817781408551858481958122852EDC6C
:102E20007EC78AE0B601402F0E94610A882309F01C
:102E300078C7F60165817681478150858481218537
:102E40002EDB6DC78BE0B601402F0E94610A8823FC
:102E500009F067C7153F09F481E0F6012681378143
:102E60000085118564814581E284EFC088E0B60168
:102E7000402F0E94610A882309F053C7F60166813A
:102E80007781848195818EC68AE0B601402F0E94A9
:102E9000610A882309F045C7F6016681778140857C
:102EA0005185848195816CDB3AC78BE0B601402F58
:102EB0000E94610A882309F034C7F6016681778190
:102EC0004085518584819581228525DA28C7103F68
:102ED000B9F488E0B601402F0E94610A882309F006
:102EE00020C7F60184819581A681B7818D559444D0
:102EF000A247B74F09F017C781E0809304020FC7BC
:102F00001A3B09F411C21B3B70F5123B09F4D3C004
:102F1000133BB0F4113A09F455C2123A38F41F3990
:102F200009F469C0103A09F0FEC64BC0103B09F421
:102F3000A1C0113B08F0AFC0123A09F0F4C64EC070
:102F4000163B09F433C1173B38F4143B09F4BDC0F8
:102F5000153B08F0C7C07BC0183B09F440C1193BC2
:102F600008F084C12FC1123C09F4BEC4133C98F48C
:102F70001E3B09F49CC31F3B38F41C3B09F4D8C228
:102F80001D3B08F023C3A7C2103C09F411C4113C37
:102F900008F043C4D0C3163C09F4EEC5173C38F41E
:102FA000143C09F456C5153C08F0AEC511C5183CD3
:102FB00009F460C6183C08F4F8C5193C09F0B3C61A
:102FC0007CC686E0B601402F0E94610A882309F082
:102FD000A8C6F601848195819CDAA1C686E0B60177
:102FE000402F0E94610A882309F09BC6F601848164
:102FF0009581CDDD94C68CE0B601402F0E94610A18
:10300000882309F08EC6F601F3848481958160E0FF
:1030100070E04F2D50E020E031DBF601868160E06A
:1030200070E04F2D50E020E03ADA81E0F601678150
:10303000408520E030E00F2D10E0EE24C2D980E082
:10304000F601618542852F2D30E0BBD968C68CE042
:10305000B601402F0E94610A882309F062C6F6017A
:10306000668177814085518522853385848195816C
:1030700094DB55C68AE0B601402F0E94610A88237E
:1030800009F04FC6F601468157812085318584813C
:10309000658199DD44C689E0B601402F0E94610A2E
:1030A000882309F03EC6F601658176814781508507
:1030B000848147DD34C684E0B601402F0E94610A56
:1030C000882309F02EC693DB2AC686E0B601402F7E
:1030D0000E94610A882309F024C6F6018481658173
:1030E000FDDB1DC684E0B601402F0E94610A8823E3
:1030F00009F017C684E090E064E170E04AE050E037
:10310000F7DA82E090E063E070E026D980E090E0BA
:1031100060E070E021D984E090E062E070E0E4DA01
:1031200082E090E063E070E017D982E090E063E035
:1031300070E012D982E090E063E070E00DD982E0A7
:1031400090E060E070E008D984E090E064E170E035
:103150004AE050E0CDDA84E090E064E170E04AE0DB
:1031600050E0C6DA86E090E063E070E0F5D886E0F3
:1031700090E063E070E0F0D886E090E063E070E01B
:10318000EBD886E090E063E070E0E6D886E090E07F
:1031900063E070E0E1D886E090E063E070E0DCD8C6
:1031A00082E090E063E070E0D7D830C385E0B601FC
:1031B000402F0E94610A882309F0B3C5F60184817B
:1031C00012DCADC586E0B601402F0E94610A88235B
:1031D00009F0A7C5F601848165814CDCA0C585E0B6
:1031E000B601402F0E94610A882309F09AC5F601B2
:1031F000148181E061E072DB112399F18CE361E0DD
:1032000039DC84E090E064E170E04AE050E070DA9C
:1032100086E090E063E070E09FD886E090E063E0B5
:1032200070E09AD886E090E063E070E095D880E0A6
:1032300090E062E070E090D886E090E063E070E0BB
:103240008BD880E090E062E070E086D886E090E085
:1032500063E070E081D880E090E062E070E07CD8CC
:1032600002C081E0C0DB81E081DA59C586E0B601A9
:10327000402F0E94610A882309F053C5F60104819A
:10328000158181E061E02ADB84E090E064E170E098
:103290004AE050E02DDA84E090E060E070E024DA6B
:1032A00082E090E063E070E057D882E090E063E075
:1032B00070E052D882E090E063E070E04DD884E0A6
:1032C00090E060E070E010DA82E090E063E070E0AF
:1032D00043D886E090E063E070E03ED880E090E084
:1032E00062E070E039D882E090E060E070E034D8CD
:1032F00084E090E064E170E04AE050E0F9D984E0D5
:1033000090E064E170E04AE050E0F2D986E090E0BD
:1033100063E070E021D884E090E062E070E01CD8C7
:1033200080E090E1B801BFC187E0B601402F0E9464
:10333000610A882309F0F5C4F6010481E580F6806E
:1033400081E060E0CBDA84E090E064E170E04AE0A4
:1033500050E0CED984E090E060E070E0C5D982E032
:1033600090E063E070E00E94AC1182E090E063E0E6
:1033700070E00E94AC1110E007C084E090E063E0D0
:1033800070E00E94AC111F5F1017B8F384E090E06A
:1033900060E070E0A9D982E090E063E070E00E9414
:1033A000AC1182E090E063E070E00E94AC1184E038
:1033B00090E064E170E04AE050E09AD980E090E16A
:1033C000B70171C18BE0B601402F0E94610A8823CA
:1033D00009F0A7C4F601B480FCE0FB1510F48CE002
:1033E000B82E30E020E0BE016F5F7F4FAE014E5F30
:1033F0005F4F13C0F601E30FF11D95813F5FE22F90
:10340000F0E0DB01AE0FBF1F892F8F708C93E40FAC
:10341000F51F92959F7090832E5F2B1558F3FF2414
:10342000F3949924AA243E010894611C711C42C0A3
:10343000F301EA0DF11D0081FE01EB0DF11D10817C
:10344000003308F00053103308F010530A3008F02E
:1034500000E01A3008F010E08F2D602F40E0E5D931
:103460006C018F2D612F40E0E0D98C159D0508F48B
:10347000012F8F2D602F41E0D8D97C01009721F4D6
:1034800083E090E00E947D10992029F080E190E097
:1034900060E070E029D984E090E060E070E024D939
:1034A000EC14FD0418F0A394992403C0BA94992451
:1034B0009394F02EAB1408F4BBCF83E090E00E940D
:1034C0007D1080E092E063E070E00ED980E092E051
:1034D00063E070E006C288E0B601402F0E94610AF6
:1034E000882309F01EC4F601068117816481758165
:1034F00081E090E04AE050E0FBD880E090E065E0B9
:1035000070E00E94AC1180E090E065E070E00E9405
:10351000AC1182E090E065E070E00E94AC1180E0C8
:1035200092E063E070E0E0D882E090E0B8013AC356
:1035300087E0B601402F0E94610A882309F0F1C399
:10354000F601F4800581E68080E090E063E070E0C1
:103550000E94AC1110E007C082E090E063E070E0F0
:103560000E94AC111F5F1F15B8F380E090E063E08C
:1035700070E00E94AC1184E090E068EC70E0B4D898
:10358000EE2081F010E084E090E063E070E00E94C3
:10359000AC111F5F1431B9F780E090E063E070E098
:1035A0000E94AC1182E390E00E943B1182E063E054
:1035B00070E00E94831207C084E090E063E070E056
:1035C0000E94AC1101500023B9F7A9C384E0B601F1
:1035D000402F0E94610A882309F0A3C382E090E093
:1035E00063E070E00E94AC1182E090E063E070E084
:1035F0000E94AC1182E090E063E070E00E94AC11A8
:1036000082E090E063E070E00E94AC1182E090E024
:1036100063E070E00E94AC1182E090E063E070E053
:103620000E94AC1184E090E063E070E00E94AC1175
:1036300084E090E063E070E00E94AC1186E090E0EE
:1036400060E070E00E94AC1184E090E064E170E022
:103650004AE050E04DD882E090E063E070E00E94E4
:10366000AC1182E090E063E070E00E94AC1182E077
:1036700090E063E070E00E94AC1182E090E063E0D3
:1036800070E00E94AC1182E090E063E070E00E9484
:10369000AC1182E090E060E070E00E94AC1184E048
:1036A00090E064E170E04AE050E022D838C384E062
:1036B000B601402F0E94610A882309F032C310E04E
:1036C00084E090E063E070E00E94AC111F5F1D3069
:1036D000B9F784E090E060E070E00E94AC1184E013
:1036E00090E068E270E04AE050E002D886E090E0C6
:1036F00060E070E00E94AC1184E090E068E270E06D
:103700004AE050E00E94781380E090E060E070E0D2
:103710000E94AC1184E090E063E070E00E947413BA
:1037200010E084E090E063E070E00E94AC111F5F65
:103730001D30B9F76BC085E0B601402F0E94610AC9
:10374000882309F0EEC2F601148184E090E06CE079
:1037500070E00E94741384E090E068E070E00E94E2
:10376000741386E090E063E070E00E94AC1186E0A4
:1037700090E063E070E00E94AC1186E090E063E0CE
:1037800070E00E94AC11112331F086E090E063E01C
:1037900070E00E94AC1110E084E090E063E070E023
:1037A0000E94AC111F5F1C33B9F784E090E067C042
:1037B00084E0B601402F0E94610A882309F0B1C25B
:1037C00010E080E090E063E070E00E94AC111F5FC9
:1037D0001D30B9F780E090E060E070E00E94AC112D
:1037E00084E090E06AE070E00E94741384E090E06E
:1037F0006FE070E00E94741310E084E090E063E0FA
:1038000070E00E94AC111F5F1A30B9F784E090E0BD
:1038100060E070E00E94AC1182C285E0B601402FEA
:103820000E94610A882309F07CC2F601148184E0B9
:1038300090E06FE070E00E94741384E090E065E037
:1038400070E00E947413112331F086E090E063E091
:1038500070E00E94AC1186E090E063E070E00E94AE
:10386000AC1186E090E063E070E00E94AC1186E06D
:1038700090E063E070E00E94AC1180E090E060E0D6
:1038800070E00E94AC1184E090E062E070E00E9481
:10389000741382E090E063E070E00E94AC1182E07B
:1038A00090E063E070E00E94AC1182E090E060E0A4
:1038B00070E00E94AC1184E090E063E070E00E9450
:1038C000741382E090E063E070E00E94AC1182E04B
:1038D00090E062E070E00E94AC1184E090E06CE067
:1038E00070E00E9474131BC285E0B601402F0E9455
:1038F000610A882309F015C2F60184818F3198F599
:1039000084E090E06FE070E00E94741384E090E047
:1039100065E070E00E94741386E090E063E070E080
:103920000E94AC1186E090E063E070E00E94AC1170
:1039300086E090E063E070E00E94AC1186E090E0E9
:1039400063E070E00E94AC1180E090E060E070E025
:103950000E94AC1184E090E068E070E00E94741373
:1039600080E090E0CCC084E090E06CE070E00E94E9
:10397000741384E090E068E070E00E94741386E0C5
:1039800090E063E070E00E94AC1186E090E063E0BC
:1039900070E00E94AC1186E090E063E070E00E946D
:1039A000AC1180E090E063E070E00E94AC1186E032
:1039B00090E063E070E00E94AC1180E090E060E095
:1039C00070E00E94AC1184E090E063E070E05FCFB3
:1039D00084E0B601402F0E94610A882309F0A1C14A
:1039E00084E090E06CE070E00E94741384E090E06A
:1039F00068E070E00E94741386E090E063E070E09D
:103A00000E94AC1186E090E063E070E00E94AC118F
:103A100086E090E063E070E00E94AC1180E090E00E
:103A200063E070E00E94AC1186E090E063E070E03B
:103A30000E94AC1180E090E063E070E00E94AC1165
:103A400086E090E063E070E00E94AC1180E090E0DE
:103A50004AC084E0B601402F0E94610A882309F021
:103A600060C184E090E06CE070E00E94741384E038
:103A700090E068E070E00E94741386E090E063E0FC
:103A800070E00E94AC1186E090E063E070E00E947C
:103A9000AC1186E090E063E070E00E94AC1180E041
:103AA00090E063E070E00E94AC1186E090E063E09B
:103AB00070E00E94AC1180E090E063E070E00E9452
:103AC000AC1186E090E063E070E00E94AC111CE372
:103AD00084E090E063E070E00E94AC11115011307E
:103AE000B9F784E090E060E070E00E94AC1184E0FF
:103AF00090E062E070E00E94741382E090E063E086
:103B000070E00E94AC11C5CE84E0B601402F0E9447
:103B1000610A882309F005C181E06FEF4FEF22E3CE
:103B200030E00E94231281E06FEF40EA20E030E0B5
:103B30000EEF11E00E942D1284E090E06AEA70E03E
:103B40000E94741384E090E06AEA70E00E947413AB
:103B500084E090E06AEA70E00E94741381E060E023
:103B600040E822E330E006E811E00E942D1282E0F6
:103B700090E066E871E0C3C086E0B601402F0E9485
:103B8000610A882309F0CDC0F601E480F58081E068
:103B90006FEF40E820E030E087010E942D1282E0C4
:103BA00090E0B7010E941E13BAC086E0B601402F14
:103BB0000E94610A882309F0B4C0F601C480D58050
:103BC000EE24FF2452C081E060E84FEF20E030E0B7
:103BD00000E210E00E942D1284E090E060E170E0CD
:103BE0000E94741384E090E060E170E00E9474131E
:103BF00081E06FEF40E820E030E00E942D1284E089
:103C000090E060E170E00E94741384E090E060E175
:103C100070E00E94741381E060E840E020E030E052
:103C20000E942D1284E090E060E170E00E94741325
:103C300084E090E060E170E00E94741381E060E055
:103C400040E820E030E00E942D1284E090E060E146
:103C500070E00E94741384E090E060E170E00E94E4
:103C6000741380E890E0E80EF91EEC14FD0408F4EB
:103C7000AACF55C084E0B601402F0E94610A882374
:103C800009F04FC081E06FEF40E924E630E00AEF31
:103C900010E00E942D1284E090E064E670E00E9443
:103CA000741384E090E062E370E00E94741381E09A
:103CB0006FEF4FEF22E330E030C084E0B601402FD9
:103CC0000E94610A882369F581E060E84FEF2EE1E8
:103CD00030E00E94231281E06FEF40E924E031E000
:103CE0000E94231281E060E040E822E330E000E936
:103CF00011E00E942D1282E090E060E971E00E94E4
:103D00001E1381E060EC40E028E730E00E942312BF
:103D100081E06FEF40E028E730E00E9423120E942C
:103D2000DB0981E001C080E02C960FB6F894DEBF7D
:103D30000FBECDBFCF91DF911F910F91FF90EF90FC
:103D4000DF90CF90BF90AF909F907F906F9008953D
:103D5000A1E21A2EAA1BBB1BFD010DC0AA1FBB1F8F
:103D6000EE1FFF1FA217B307E407F50720F0A21B01
:103D7000B30BE40BF50B661F771F881F991F1A946E
:103D800069F760957095809590959B01AC01BD0198
:103D9000CF010895FB01DC0102C005900D92415056
:103DA0005040D8F70895FB01DC0102C001900D924C
:0C3DB00041505040D8F70895F894FFCF20
:103DBC0071027800770101012003E8037800FA0012
:103DCC0064007D007701C800FA00FA00C40977018D
:103DDC005F057D007102500077016E007701F401E0
:103DEC007701E457140050005A002C012C01FA0002
:103DFC00FA000100000001000000381EE797120EC7
:083E0C000000088080808000A6
:00000001FF
